:020000022000DC
:106000000000042079630200616302006363020000
:10601000656302006763020069630200000000001C
:106020000000000000000000000000006B630200A0
:106030006D630200000000006F63020071630200E4
:106040000587020073630200CD8B020073630200B8
:106050007363020073630200298A02007363020003
:1060600073630200736302007363020073630200D0
:1060700073630200736302007363020073630200C0
:1060800073630200617202007363020073630200B3
:10609000FD720200736302003DD2020073630200CE
:1060A0007363020073630200736302007363020090
:1060B0007363020073630200000000000000000030
:1060C0007363020073630200736302007363020070
:1060D0007363020073630200736302007363020060
:1060E0007363020073630200736302000000000028
:1060F00000000000736302000000000073630200F0
:10610000000000000000000000000000000000008F
:10611000000000000000000000000000000000007F
:10612000000000000000000000000000000000006F
:10613000000000000000000000000000000000005F
:10614000000000000000000000000000000000004F
:10615000000000000000000000000000000000003F
:10616000000000000000000000000000000000002F
:10617000000000000000000000000000000000001F
:10618000000000000000000000000000000000000F
:1061900000000000000000000000000000000000FF
:1061A00000000000000000000000000000000000EF
:1061B00000000000000000000000000000000000DF
:1061C00000000000000000000000000000000000CF
:1061D00000000000000000000000000000000000BF
:1061E00000000000000000000000000000000000AF
:1061F000000000000000000000000000000000009F
:10620000364937480A1A02D0072291438D4635494C
:1062100035480A1A06D00722914381F309880222E1
:1062200082F3148831483249324A00F045F8324846
:106230003249334A00F040F832483349334A00F0DB
:106240003BF833483349344A00F036F83348344990
:10625000344A00F031F834483449354A00F02CF81B
:1062600034483549354A00F027F835483549002289
:1062700000F02DF834483549002200F028F8344861
:106280003449091A082903DB002202600430016046
:10629000314A90471F482049884205D0026804309F
:1062A00003B4904703BCF7E700208646EC46002085
:1062B00000212A4A9047FEE7884207D0521A05D0AB
:1062C000037801300B700131013AF9D170478842EF
:1062D00002D002700130FAE770470000000004208D
:1062E00000E00320000004200000042070FA0200F7
:1062F00030370020743D0020D8630200D8630200CC
:1063000004E1020070FA020030370020303700202C
:1063100004E2020004E2020004E2020004E20200DD
:1063200004E2020004E2020004E2020004E20200CD
:1063300070FA0200B4000300743D0020743D002098
:10634000743D0020185800201858002018580020CC
:106350001858002018780020A163020099BA0200A2
:10636000FEE7FEE7FEE7FEE7FEE7FEE7FEE7FEE705
:10637000FEE7FEE7704700BF1048804710484FF027
:106380000701884385460F4880470F48016841F45C
:1063900070010160BFF34F8FBFF36F8FFFF730BF06
:1063A0000A480B490B4A884207D0521A05D0037895
:1063B00001300B700131013AF9D170477563020069
:1063C000000004207981020088ED00E004E2020070
:0863D0003037002030370020B7
:1063D8007047000007B5054B0093054A4FF400636A
:1063E80000F037F803B05DF804FB00BFFD6302005E
:1063F800753D00202DE9F0478A461446DAB1114B65
:10640800114E0325002743F0010822460AEB070135
:10641800002005F0F1FB0744241A70B9337853B112
:106428004FF004094FF47A40C047B9F10109F9D196
:10643800013D02D13570BDE8F08701233370002C8F
:10644800E3D1F8E710E20200743D0020704705F040
:1064580007BCF0B595B01C46164608460D4601F037
:1064680064FD1A9B0D93CDE9086400242346082295
:1064780005A928460A948DF82C400C9401F073FD68
:10648800079B0293BDF81830ADF80C30BDF81A30F0
:10649800ADF80E309DF814308DF8114003F003026A
:1064A800012A1DD1BDF81440059EC3F3C203C4F3ED
:1064B80083148DF81030A20008230EA9284601F095
:1064C80052FDC6F3952608AB0093224602AB0EA9EF
:1064D800304600F0E3FB284601F02BFD15B0F0BD77
:1064E800022AF8D1BDF81640C3F3C203A4098DF8F7
:1064F80010300827082C264628BF08263B46324677
:106508000EA9284601F02FFDA41B08AB02AA3146AC
:106518000EA8374400F026FC002CEBD1DBE7000086
:1065280008B5FFF794FF0421034800F025FB034B4F
:1065380001225A7108BD00BFF4E102003037002083
:10654800037813F0040216D003F00303012B03D0E1
:10655800022B09D0012070470A6800880232C0F374
:10656800831002440A60F5E70B684288023303EBA4
:1065780092130B60EEE71046704700002DE9F04FCC
:1065880089B00546861C08A8484C019200230F468E
:1065980000F8113D01F0ACF923683B60D4E9012310
:1065A8001344226801339B1A04F21C4704F5836ADA
:1065B80004F21448B3421AD3019A0023002A6DD07A
:1065C800012262F3010343F0040365F38913216890
:1065D800A2689DF80F000A4003320E4444F82230A6
:1065E800266001F0A9F9012009B0BDE8F08F01216A
:1065F800384601F0D7F9504601F0EAF9404601F073
:10660800E7F90DF120096068D4F808B049F8100DD1
:1066180000EA0B00033004EB80004946FFF790FFC7
:10662800049BB0B90BEA030204EB8202D16805911E
:106638009A1C013303EA0B0B04EB8B0C01F00303E8
:10664800012B0492DCF80CB020D0022B04D0834636
:106658000BE00BEA0300DDE7BDF816309B090333B6
:106668004FEA1B4B02EB93030493404601F0B3F946
:1066780008B1049B63605946384601F093F9D4E9A0
:1066880001231344226801339B1A93E7BDF81430A1
:10669800C3F383134FEA1B4B1344E5E7022262F36B
:1066A800010343F0040365F39F5390E74846002035
:1066B8000B4B0C48FF2210B59A600022C3F818242F
:1066C800C3E90022C3F8142483F8202401F0E6FB70
:1066D800044610B9044801F0EBFC204610BD00BF89
:1066E8004846002088E1020034E2020030B50A4C36
:1066F80071B10A4A0A49121BD20800239A4201D1F1
:10670800002030BD31F82350854202D00133F5E72F
:10671800034654F83300F4E710E1020088E1020070
:1067280030370020094B013903EBC000032909D891
:10673800DFE801F00A020406042070470079704778
:1067480040797047002070470220704710E102002E
:10675800034BD3E90030C31A58425841704700BF71
:10676800484600202DE9F04387B0FFF7F1FF0646C1
:10677800002840F0FC807F4DC5F81804BFF34F8F08
:106788006868AC6806AF47F8100D2040033005EB89
:1067980080003946FFF7D4FE029B18B1D5F81824BB
:1067A800002A5FD004EA0302991C013305EB820238
:1067B800234005EB8303D268DB68049302F00303EC
:1067C800022B0392029162D1BDF80E306A484FEA5B
:1067D8009318B8F1500FC14628BF4FF0500969F31C
:1067E8008F1309F10801ADF80E3001F06FFB074671
:1067F800002800F0A78001F098FB03A900230822D5
:10680800384601F0A5FB029924EA01060136B600D4
:10681800B14535D95FFA89F97EB3F6B2A9EB060915
:10682800214003315FFA89F4B146544E05EB8101EA
:1068380008234A46384601F08BFB36B109F10803B4
:1068480022463146384601F083FB029B08F10308D3
:1068580003EB98030293D5F81834002B4BD1D5F8E5
:1068680010445BE02A689A4204D86A60304607B050
:10687800BDE8F08304EA030088E740493446D7E7D7
:106888002140033108234A4605EB8101DAE7012B51
:1068980058D1BDF80C303848C3F38311062928BFF6
:1068A800062161F3891302318900ADF80C3001F03B
:1068B8000DFB0746002845D001F037FB00230822CE
:1068C80003A9384601F044FB0026BDF80C20C2F3AA
:1068D8008312B31C96424FEA8303BCD202994A1C26
:1068E80021400331029205EB81010422384601F070
:1068F8002FFB0136E9E7384601F01BFBFFF728FFBD
:1069080080F00100C6B2B1E7E3685B7923B1236880
:1069180039461B6820469847E3681C68002CF3D169
:10692800384601F006FB06A800F8114D00F0E0FF1C
:10693800D5F818340BB9029B6B609DF8070000F07E
:10694800FBFFDBE7D5F8104454B90D4B0D480E4951
:10695800C01AC008000440F0020000F06FF8CDE74C
:10696800236820469B689847E3681C68ECE7002684
:106978007CE700BF4846002088E10200544600201A
:1069880010E1020038E1020040E202002DE9F74F71
:10699800284C80460F46924601A9012218469B467C
:1069A800D4F80890FFF7EAFD88B3019D0026A91CDA
:1069B8005E4506EB010234D100211F4800F0D2FFEA
:1069C80080F310006A1C02EA090204EB8202000448
:1069D80005EA0903033340EA1840D06014F823207D
:1069E80068F3C50204F8232034F8232066F38912DB
:1069F80024F8232054F82320012167F39F2244F828
:106A0800232061F301026FF3820204F8232094F833
:106A180020341BB1FFF7A6FE0028FBD103B0BDE868
:106A2800F08F09EA020204EB82025AF82630D3609A
:106A38000136BDE748460020644A002000231A4674
:106A4800FFF7A4BF13B502AC012344F8042D224676
:106A5800FFF79CFF02B010BD07B5CDE90023022364
:106A68006A46FFF793FF03B05DF804FB1FB5CDE955
:106A78000123069B039301AA0323FFF787FF05B0B1
:106A88005DF804FB7FB5CDE90023089B0293099BC1
:106A980003930A9B04930B9B05936A460623FFF70F
:106AA80075FF07B05DF804FB2DE9F3478046304CCD
:106AB800D01C8A46174601A900228008A568FFF75E
:106AC8005DFD002840D0DDF80490A66809F10200B9
:106AD800019001362840361AB6000330B74204EB5D
:106AE80080003BD83A46514606F098FE00212148DE
:106AF80000F038FF80F3100009F101032B4004EB8C
:106B080083034FEA184242EA0040D86005EA0903C5
:106B1800033304EB830214F8231068F3C50104F867
:106B2800231034F823106FF38F1124F823105188A1
:106B380067F38F11518014F82320022161F30102B9
:106B48006FF3820204F8232094F820341BB1FFF776
:106B580009FE0028FBD102B0BDE8F0873246514655
:106B680006F05CFEBA1B0AEB060104F10C00BBE759
:106B780048460020644A002030B50F49D1F8102457
:106B8800002314463CB9C468237152B9C1F81004F3
:106B98002260184630BDE46825799D4206D02468F5
:106BA800F0E7D268116821601060F2E701330A2B20
:106BB800E7D14FF0FF33ECE748460020094A38B5E3
:106BC8000123D2F8104482F820341D4604B938BD98
:106BD800E3685D71236820465B689847E3681C6832
:106BE800F4E700BF48460020037A052B10B50C4691
:106BF8000FD0437A23B1084A0849204600F04CFFD9
:106C08000749204600F048FF2046BDE8104000F044
:106C180038BF002AF8D0F3E78BE2020090E20200C6
:106C2800B0E20200C38873B504460D4633B1144A76
:106C380000921449144A284600F02EFF217A0529AB
:106C48001CD0637A4BB1A088FFF76CFD0F4B10493D
:106C580053F82020284600F01FFF227A0D4BA08809
:106C680053F822600021FFF741FD0B4903463246E5
:106C7800284602B0BDE8704000F00EBF02B070BDFB
:106C88008BE202009BE2020093E2020058E202005B
:106C980090E20200C0E20200B3E202002DE9F043F4
:106CA80085B01F460C9D002306460C46904695F875
:106CB8000C902B7329463846FFF7B4FFB8F1060F3E
:106CC80009D8DFE808F00412181F283340003146BD
:106CD800284600F0E1FE002229463846FFF784FFE7
:106CE80085F80C9005B0BDE8F08322683146284647
:106CF80000F0D2FEEFE7D4E900233146284600F041
:106D0800CBFEE8E7A36800933146D4E90023284680
:106D180000F0C2FEDFE7E3680193A3680093314601
:106D2800D4E90023284600F0B7FED4E7236902938C
:106D3800E3680193A36800933146D4E90023284609
:106D480000F0AAFEC7E76369039323690293E36827
:106D58000193A36800933146D4E90023284600F044
:106D68009BFEB8E708292DE9F84F80460E461746DE
:106D78001C463AD8002593F80C901D731946104606
:106D8800FFF750FFDFF884A0DFF884B0AE422ED9B9
:106D980018F805205946204600F07EFE0135082DDA
:106DA800F4D11849DFF86CB0204600F075FE4FF0BA
:106DB800000A564520D918F80A507E2D03D82846CF
:106DC80006F0A0FC00B92E252A465946204600F0B8
:106DD80063FE0AF1010ABAF1080FEAD1012221463D
:106DE8003846FFF701FF84F80C90BDE8F88F51464C
:106DF800204600F051FED1E70349204600F04CFE42
:106E0800E7E700BF86E2020084E2020082E20200B5
:106E18007CE2020088E202002DE9F04F3B4F89B086
:106E280000263B4B1B78F5B2AB4202D809B0BDE84F
:106E3800F08F384B196811F835000124A0F12002B1
:106E4800C0F1200304FA02F924FA03F349EA03091A
:106E5800D7E9002304FA00F8CDE9042302EA08027E
:106E680003EA0903134301EBC50B4CD0DDE9042306
:106E780022EA080223EA0903C7E90023079101F07F
:106E8800BFFD0799844611F83500A0F12002C0F132
:106E9800200324FA03F304FA02F21A4304FA00F373
:106EA80000931D4B0192DDE90045D3E9002314400E
:106EB8001D4022462B465FFA8CF40025CDE9044597
:106EC800049CA0F12005AC400394049CC0F120016F
:106ED80024FA01F1039C0C43049903948140029124
:106EE800DDE90245AB4208BFA2420CD19BF8011074
:106EF8004B1E59425941A1EB0C02DBF804305142B8
:106F0800514103B1984701368BE700BF384B002049
:106F1800044B0020404B0020304B00202DE9F84F57
:106F28000646244800F0C2FB002841D10123A6F1FF
:106F38002001C6F1200203FA01FB23FA02F203FA48
:106F480006FA1D4BD3E900014BEA020B00EA0A08D6
:106F580001EA0B0958EA09021F4623D1304601F01D
:106F68004FFD164BB8B1D3E9000140EA0A0441EAE3
:106F78000B05C3E90045D7E900234BEA0305104B8D
:106F88000C4819684AEA0204C7E900450022BDE82E
:106F9800F84F00F047BBD3E9000120EA0A0421EAD0
:106FA8000B05E6E720EA0A0421EA0B05C3E90045D8
:106FB800BDE8F88F0C4B0020384B0020304B0020E8
:106FC800084B0020042A2DE9F34105460C461646D5
:106FD8003AD901F03BFCD8B11C4B1D491D601D4B33
:106FE800DFF884801C701C4B00221E600023C1E95E
:106FF80000231A49C1E90023013CE4B20026032713
:10700800FF2C0CD1164A1748002100F0F9FA03E0CA
:1070180001F0E6FB0028DFD002B0BDE8F08123B222
:1070280005EBC30201A992788DF8052015F8330005
:107038008DF8066042468DF8047001F011FC013CA1
:10704800E4B20028DCD0E7E70720E5E7404B002062
:10705800304B0020044B0020084B0020384B002008
:10706800216E020020E30200256F020070B5084D72
:10707800084E00242B789C4201D3002070BD336851
:10708800012113F8340001F071FC0134F2E700BF6C
:10709800044B0020404B00201FB50021039001AA9B
:1070A80044F20100CDE9011100F004F805B05DF8E3
:1070B80004FB000010B572B6FFF780FDFFF752FB26
:1070C8000028FBD1104B114C1149E41AE4082404A0
:1070D80044F00100FFF7B2FC0E4B1B68DB0700D53C
:1070E80000BE0D4944F00200FFF7A8FCBFF34F8F24
:1070F8000A490B4BCA6802F4E0621343CB60BFF342
:107108004F8F00BFFDE700BF10E1020038E1020029
:1071180024E30200F0ED00E030E3020000ED00E0BF
:107128000400FA0549B152B1531E1A4007D18260D2
:1071380001608380C260104670470E2070470920A6
:10714800704710B58468C2688388121B934208D3BD
:10715800C26813400268D154C3680133C360002079
:1071680010BD0420FCE78268C3689A420AD082688E
:10717800838813400268D35C0B7083680133836093
:107188000020704705207047094A537891780133E9
:10719800DBB2994208BF0023117899421FBF0370E0
:1071A8005078182303FB002014BF043000207047D8
:1071B800444B002073B5054602A8002400F8014D91
:1071C8000E4600F095FB0DF10600FFF7DDFF90B1CC
:1071D80006700A4B9DF8062045605A709DF8070016
:1071E80000F0AAFB24B9064B4FF48012C3F8002123
:1071F800204602B070BD0424F0E700BF444B0020D5
:1072080000E100E0024B4FF43C6043F001031847F3
:1072180040E3020038B50C4B0C4C4FF40032C3F875
:10722800802001254FF48033C4F84833C4F808336C
:107238006560FFF7E7FF064BA56000241C60FFF7B9
:10724800E1FF044B1C7038BD00E100E00010014074
:10725800604C0020514C0020F8B51F4B1F491B689B
:107268000025C1F84051C1F84451C1F84851C1F84E
:107278004C51C1F80051C1F804514BB3D1F8044541
:1072880017490968641A24F07F442F461A68A242F5
:1072980009D8A41A15441A7CDE691AB11F74D3E9F7
:1072A80005209047AEB90F4B0F4A197813788B42D7
:1072B80005D10133DBB2022B08BF0023137012780B
:1072C8000A4B43F822500A4B4FF48012C3F80021AE
:1072D800F8BD3346DAE700BF644C002000100140D7
:1072E800604C00205C4C00205D4C0020544C002079
:1072F80000E100E02DE9F74F9E4A9F49137809788D
:107308009E4D99423CD00133DBB2022B08BF0023CB
:1073180013709B4912789B4B0F6853F822003B1857
:1073280023F07F4300220B602B68164614469446D0
:1073380013B942B12B6006E0196881420ED902B137
:107348002B60091A19604FF001082B68DFF83CA27E
:1073580000930027BEB9DFF83CB260E0401A0C4445
:10736800D968C3F800C0D3F81CE031B13A1922F04B
:107378007F42C3E90121DE611E4601227346D7E739
:107388000026B046E1E73446F6697D4A636812682C
:10739800DFF804C2A068991A21F07F41614500F224
:1073A800A58001442160012222742A680023C4E9CF
:1073B8000133E361002A40F0A2802C60CAE75A1C1E
:1073C8009BF80210D2B291428BF8002004BF002231
:1073D8008BF80020182202FB03B32A6819799C68ED
:1073E800022974D003297ED0012918D1217CB1B992
:1073F800DA6862601A69A2605A699B69A361624B84
:10740800E2601B78002BC0D06160BEE79C4200F0B0
:1074180093809946DB69002BF8D1002323749BF8ED
:1074280000309BF801209A42C9D12B682FB9009AE5
:10743800934202D1B8F1000F43D0002B79D0D3F892
:1074480000A0524D4E4BD5F804751C68DFF84C81EE
:107458003E1B98F8003026F07F4603369BB94FF460
:107468008033C5F84433C5F80433494B4FF4003230
:107478004FF00109C3F880211A60C5F80090FFF7A2
:10748800C1FE88F80090B2452CBF5444A41924F0DA
:107498007F44C5F84045D5F80435DB1B23F07F430E
:1074A800E41B033324F07F44A3420AD9D5F80435FA
:1074B800C5F84035FFF7A6FE354B4FF40032C3F848
:1074C8000021314B00221A7003B0BDE8F08F13463B
:1074D8009146A0E71174D2690123002AFAD1002B42
:1074E8009DD02A609BE700231946F6E7D31A23F0BC
:1074F8007F43834234BFC31A0023236053E72168C4
:107508001368994213D8591A1160E26155E7091AAC
:10751800D8691A4638B1034618688842F7D3401A22
:107528001860184613462160E061DC6112E71346D3
:10753800F2E7FFF76FFEC4E74C450DD1D3692B6026
:1075480053B90F4801920121CAF8081003600E4B85
:107558001970FFF757FE019AE1692368C9F81C10F2
:1075680011B1086803440B602B689A4218BF0127C1
:1075780053E700BF5C4C00205D4C0020644C0020A9
:10758800604C0020544C0020504C0020001001405A
:1075980000E100E0444B0020FEFF7F00514C00203A
:1075A80008B5FFF737FE104B00200B2218809A70A1
:1075B8000E4B18600E4B18700E4B18700E4B4FF494
:1075C8008012C021C3F8802183F814131A6002F1D5
:1075D8008042A2F56F22C2F8080583F81113074B01
:1075E800D2F804251A6008BD444B0020644C0020E2
:1075F8005C4C00205D4C002000E100E0604C002065
:10760800074B9B784BB132B128B10368187C20B97D
:1076180059745A617047072070470820704700BFA7
:10762800444B00202DE9F7431D4FBB7805460E4615
:1076380090469BB390B304292ED9436973B3437C16
:1076480002A80024012B00F8014D0CBF8946A14671
:1076580000F04EF90DF10600FFF796FDD0B10123B9
:107668000370104B4560D3F80435C0E90498C0E9AD
:1076780002369DF806307B709DF8070000F05CF933
:1076880024B9094B4FF48012C3F80021204603B0F7
:10769800BDE8F0830424EFE70724F7E70824F5E7BB
:1076A800444B00200010014000E100E0064A9278B7
:1076B8003AB130B1426922B1002202740221FFF7C7
:1076C80079BD0820704700BF444B00200648074A90
:1076D80003780749D35C012213B1043001F0DCBE02
:1076E8000C3001F0ABBC00BF38370020D44C002070
:1076F800904C00200648074A03780749D35C0122CA
:1077080013B1043001F078BE0C3001F041BC00BF69
:1077180038370020D44C0020914C002037B505782C
:10772800012D04D035D3022D28D003B030BD4368D5
:107738001F4C19782046FFF704FD78B11D4B0190C6
:107748008DF800501B6868469847A168E368A288CE
:107758005B1A9A420ED3FFF7B9FFE6E7A268E3681F
:107768009A42F2D002AB134A03F8080D1268184681
:107778009047EAE7104B01221A70D6E7C3680193D5
:107788008DF80050FFF7A2FF0A4B1B686846984720
:10779800CBE70A490A48FFF7E6FC10B9FFF7AAFF4A
:1077A800C3E702A8032300F8083D024B1B68EEE775
:1077B8006C4C0020684C00207C4C0020914C002030
:1077C800804C0020F0B51F46234B89B006461A604E
:1077D8000C4600293DD08A8820480968FFF7A2FC9A
:1077E800002834D1A289A1681D48FFF79BFC002816
:1077F8002DD11C4D0FCD6C460FC495E80F0084E8C1
:107808000F0073690693337C174A18488DF81C706B
:10781800003318BF01238DF81430737C002B14BF7C
:107828000E2300238DF81530F3680293B368039391
:107838003368019369467368009300F0F5FE30B928
:107848000B4B18703368013301D0FFF73FFF09B0C5
:10785800F0BD0720FBE700BF684C00206C4C0020FF
:10786800804C002048E302002577020038370020CA
:107878007C4C002070B5084C014608482678FFF774
:1078880072FC054636B100232370FFF71FFF08B1CD
:10789800FFF702FC284670BD7C4C00206C4C002091
:1078A80010B501460E48FFF74CFC0446A8B90D4830
:1078B8000D4A0378D35C63B1043001F0E1FD60B98F
:1078C8000A490748FFF74FFC38B9BDE81040FFF7F1
:1078D80011BF0C3001F0A6FBF1E7204610BD00BF38
:1078E800804C002038370020D44C0020914C0020D8
:1078F80070B5EFF3108672B60C4A946801239CB9F0
:1079080093600B4B0B4DD3F8801029401160C3F8DE
:107918008050D3F8841051604FF0FF32C3F88420B0
:10792800047006B962B670BD0370FAE7944C002083
:1079380000E100E0FC06FFBD084B9A6810B55AB19B
:1079480050B9EFF3108172B6054A1C6814605C6880
:107958005460986001B962B610BD00BF944C002015
:1079680000E100E050E8002F0B4640E8003C9CF0A6
:10797800000FF7D11046704750E8003F43EA010274
:1079880040E8002C9CF0000FF6D11046704750E8F4
:10799800002F02EA010340E8003C9CF0000FF6D1FA
:1079A8001046704750E8003F03EB010240E8002C06
:1079B8009CF0000FF6D11046704750E8003FA3EB4B
:1079C800010240E8002C9CF0000FF6D110467047E9
:1079D8000121FFF7D1BF0021FFF7D9BF10B590B142
:1079E800D0E9012301689B1ADBB20A60013BDBB2D4
:1079F800FF2B026802D10020107110BD11684C1CC9
:107A080014600B70F2E70E20F7E737B5054602A8B9
:107A1800002400F8014DFFF76BFF2A686B681168B6
:107A280099420ED9481E106011F8014CEB68298A5A
:107A380001FB0434AB6811791B1ADBB2994238BFD9
:107A480013719DF80700FFF777FF204603B030BD9C
:107A580037B5054602A8002300F8013D0C46FFF79C
:107A680047FF2A681368591C1160E968641A298A53
:107A7800B4FBF1F41C709DF80700FFF75DFF03B03D
:107A880030BD826810B504462AB1436901680069AF
:107A980098470023A36010BD0EB403B5039929B11C
:107AA80002AA04AB42F8043D00F072F802B05DF897
:107AB80004EB03B070470A2938B504460D4602D1D5
:107AC8000D21FFF7F8FFA3682268591CA160D5545F
:107AD800D4E901329A4204D32046BDE83840FFF782
:107AE800D0BF38BD2DE9F84F9946DDE90A4317465E
:107AF800824688460A460126BA420FD24E4538BF0A
:107B08004E4613F0010B01D164B900240125B9F1E7
:107B1800010F1AD909F1FF397D43F8E7B2FBF7F2F3
:107B28000136E9E79B070ED5B9F1000F0CBF3025E8
:107B38002025A642EAD2013C29465046FFF7BBFF62
:107B4800002CF6D1E1E72025F3E7B8FBF5F39F42D7
:107B5800E2D9DFF83890B8FBF5F3504619F803106E
:107B680005FB1388FFF7A7FFB5FBF7F5002DF2D14A
:107B7800BBF1000F02D00CB1A64201D3BDE8F88FCB
:107B880020215046013CFFF796FFF4E768E3020026
:107B98002DE9F74F054690460E46002900F03A8138
:107BA80016F8011B002958D0252940F0D18000275C
:107BB80002E047F001071646324612F8013B2D2B2A
:107BC800F7D0302B04D02B2B05D147F00407F2E770
:107BD80047F00207EFE700242A2B06F101021BD128
:107BE800D8F80030191D1B68C8F800101C44164648
:107BF80033782E2B1CD101364FF0000A314611F88C
:107C0800012BA2F13000092814D80A2303FB0A2308
:107C1800A3F1300A0E46F1E712F8013CA3F1300156
:107C28000929E5D80A2101FB0434303C1646D3E77C
:107C38004FF0000A324612F8011B01F0FB006828D9
:107C48001646F8D0692916D054D8582970D00ED8BD
:107C580025297DD03378002BA2D12B7B002B00F077
:107C6800D980284603B0BDE8F04FFFF70ABF632963
:107C780068D06429EED1D8F80020D2F80090111D00
:107C880089EAE972C8F80010A2EBE9724FF0010B1B
:107C9800092A61DCD34538BFD3462CB1B9F1000FAE
:107CA80001DB790700D5013CBA0702D5BAF1000F0C
:107CB80004D0FB0702D4002C54D10024B9F1000FE2
:107CC80058DAC9F100092D212846FFF7F4FE07F01C
:107CD8000302022A05D1BAF1000F02D1002C4DD1BE
:107CE8000024CDE9004753460A2249462846FFF7B3
:107CF800F9FEAFE7732954D016D87029AAD1D8F85D
:107D080000301A1DC8F80020302128461C68FFF7EB
:107D1800D2FE78212846FFF7CEFE00220823CDE9BF
:107D2800003221461022E1E775292FD0782991D118
:107D3800D8F800100A1DC8F80020CDE900475346BE
:107D480010222CE0D8F800301A1D1978C8F8002045
:107D58002846FFF7B0FE7DE70A230BF1010B92FBE3
:107D6800F3F295E7A345A9D220212846013CFFF765
:107D7800A2FEA0E77807AAD52B21A5E7A345B0D294
:107D880030212846013CFFF796FEA7E7D8F80010F7
:107D9800CDE900470A1DC8F8002053460A220968A1
:107DA800A4E7D8F800301A1DC8F80020F907D3F85E
:107DB800009012D54F46A7EB090B17F8011B41B9E4
:107DC800A345BFF447AF20212846013CFFF773FEC7
:107DD800F6E72846FFF76FFEEDE7B9F1000F17D079
:107DE800484605F0C0FD0746BC4200D954B909F120
:107DF800FF3919F8011F00293FF42CAF2846FFF777
:107E08005AFEF6E720212846013CFFF754FEEBE72F
:107E18004F46E9E703B0BDE8F08F2DE9F047B0F829
:107E280006904479D2F800A09DF8208009FB04F45C
:107E3800043C06460AEB0300A0420F4688BFA4EBA9
:107E4800030A191DC2F800A0B1FBF9F509FB1511C9
:107E58004DB9A9EB0104544528BF5446BAF1000FA7
:107E680004D1BDE8F0873668013DF1E704317B199C
:107E780070182246B8F1000F0ED001461846AAEB3A
:107E8800040A05F0CBFCD145254436684C464FF032
:107E9800000128BF5446E1E71946F0E7FFF79EBD09
:107EA800F8B546790146721E0546002393422D68AF
:107EB80003D30024A64202D8F8BD0133F6E70F68C1
:107EC8002846FFF7C5FD01343946F3E72DE9F843A5
:107ED800068ACD1C0746FFF798FD043E3544044644
:107EE800B5FBF6F5F0B14FF48073EDB28380C68030
:107EF800013D076081464FF00008A84512D2384678
:107F0800FFF783FD064648B163790133637108F1D1
:107F18000108C9F8000007608146EEE72046FFF730
:107F2800BFFF34462046BDE8F88301210430FFF73F
:107F380039BD10B5012104460430FFF73EFD10F0AD
:107F4800FF0F04D12046BDE81040FFF7A9BF10BDC0
:107F58001FB504AC44F8042D002200922246FFF716
:107F68005CFF04B010BD1FB504AC44F8042D012219
:107F780000922246FFF751FF04B010BD33DF70476F
:107F880041DF7047064B10B500241C70054B1C6080
:107F9800BFF35F8F0449054800F093F8204610BDF1
:107FA800A94C0020AC4C002078E30200A04C002033
:107FB80007B502A8002300F8013DFFF799FCF1EE90
:107FC800103A23F09F03E1EE103ABFF35F8F0A4B9C
:107FD8004022C3F884219DF80700FFF7ADFC05F0A7
:107FE8000FF920B1FFF7CCFF03B05DF804FB20BF09
:107FF80040BF20BFF8E700BF00E100E070B5264CA5
:10800800054601212046FFF7ADFCBFF35F8F2646EA
:1080180038B9042D0AD0214B1A781AB1BFF35F8FF3
:10802800206070BD1E4A157001221A701D4C1C4D2F
:108038006368BBB9FEF7C2FDFEF794FB0028FBD1CD
:10804800174B1B78023B012B14D8BFF34F8F1649EF
:10805800164BCA6802F4E0621343CB60BFF34F8F3C
:1080680000BFFDE71B682878984788B1204600F0D4
:1080780032F8DDE705F0C4F808B1FFF77FFF4FF0ED
:1080880080430122C3F80025BFF34F8F20BFFDE7CF
:10809800BFF35F8F3060C4E7AC4C0020A94C0020D0
:1080A800A84C0020A04C002000ED00E00400FA05D8
:1080B800836800225A609A60C3E90422DA601A6071
:1080C80070470B684A684360934208BF0023016009
:1080D80008BF43607047436843B1026891685268BB
:1080E8000B449342436004BF002343607047000081
:1080F8000D4930B5A1F594720225914201D80020AE
:108108000EE08B1ADB1093FBF5F302EBC30452F875
:108118003330834205D802D204F10802EDE76068E3
:1081280030BD2146E9E700BFC8E4020008B5FFF703
:10813800DFFF024B002808BF184608BD8DE3020088
:1081480010B50446C0B2FFF7ABFB204610BD0000D7
:10815800054B1B68082B01BF044B1868B0FA80F068
:10816800400918BF0020704730010010340100108A
:1081780008B54FF080430022C3F80C21C3F8102142
:10818800C3F838254FF0805203F54043D2F8041461
:10819800C3F82015D2F80814C3F82415D2F80C1423
:1081A800C3F82815D2F81014C3F82C15D2F81414F3
:1081B800C3F83015D2F81814C3F83415D2F81C14C3
:1081C800C3F84015D2F82014C3F84415D2F8241483
:1081D800C3F84815D2F82814C3F84C15D2F82C1453
:1081E800C3F85015D2F83014C3F85415D2F8341423
:1081F800C3F86015D2F83814C3F86415D2F83C14E3
:10820800C3F86815D2F84014C3F86C15D2F84424A2
:10821800C3F87025FFF79CFF10B1384B384A1A6035
:10822800FFF796FF18B1374BFB22C3F81825FFF765
:108238008FFF48B13449354B0A681B6822F00F029A
:1082480003F00F0313430B60FFF782FF18B1304BA5
:108258004FF400721A604FF08043D3F80024D2071D
:1082680044BF6FF00102C3F800242A4AD2F88830CC
:1082780043F47003C2F88830BFF34F8FBFF36F8F9A
:108288004FF01023D3F80022002A03DBD3F804327E
:10829800002B2FDA204B0122C3F80425D3F8002441
:1082A800002AFBD04FF010221221C2F80012D3F896
:1082B8000024002AFBD04FF010231222C3F8042216
:1082C800154B1A46D3F800140029FBD00021C3F837
:1082D8000415D2F80034002BFBD0BFF34F8F0D49A3
:1082E8000E4BCA6802F4E0621343CB60BFF34F8FB2
:1082F80000BFFDE70A4B0B4A1A6008BD8C560040C8
:108308004881030000F00040E40E004058020010CD
:108318004096024000ED00E000E001400400FA054C
:108328004C3700200090D003074B1B5C1F2B8ABFE3
:10833800064A4FF0A04203F01F03D2F80405D840C4
:10834800C04300F00100704786E8020000030050B7
:10835800074B1B5C1F2B86BF03F01F0305494FF01B
:10836800A041012202FA03F3C1F80C35704700BF9F
:1083780086E8020000030050074B1B5C1F2B86BFDA
:1083880003F01F0305494FF0A041012202FA03F34D
:10839800C1F80835704700BF86E8020000030050A6
:1083A80008B50020FFF7E8FF0120FFF7E5FF0220EE
:1083B800FFF7E2FF0320BDE80840FFF7DDBF08B57F
:1083C8000020FFF7C5FF0120FFF7C2FF0220FFF7DB
:1083D800BFFF0320BDE80840FFF7BABF0A4B185C8F
:1083E8001F288ABF094B4FF0A04300F01F00D3F8A5
:1083F80004250121814021EA02000A40C3F808054A
:10840800C3F80C25704700BF86E80200000300503F
:10841800074B1B5C1F2B8ABF064A4FF0A04203F094
:108428001F03D2F81005D840C04300F00100704780
:1084380082E80200000300500B2809D00C2809D05C
:10844800182809D019280CBF03204FF0FF307047B7
:10845800002070470120704702207047014B185CCC
:10846800704700BF82E80200C20710B504460CD569
:108478004FF0A0430322C3F83427C3F83827C3F8C2
:108488003C27C3F84027FFF78BFFA3070AD54FF017
:10849800A0430C22C3F82C27C3F83027C3F8602761
:1084A800C3F8642710BD000038B5084C04F1080370
:1084B8000546002818BF1C4623682BB11A6822609D
:1084C8005B6828469847F7E738BD00BFB84C0020DE
:1084D80020B9054B01225A70FFF7E6BF012802D1E7
:1084E800014A9070F8E77047B04C002020B9034B60
:1084F80001225A70FFF7D8BF704700BFB04C002068
:1085080038B50B4C237883B90A486360A3602361AC
:10851800E36000F0C7F8054604F072FE08B900F001
:10852800CFF801232370284638BD8525FBE700BF17
:10853800B04C0020D984020037B502A80023094CAA
:1085480000F8013DFFF7D4F9E368013BE360E56813
:1085580015B900F0C7F8A5709DF80700FFF7ECF90A
:1085680003B030BDB04C0020012813B509D003D3A7
:1085780003281BD002B010BD0F4B0122C3F8802086
:10858800F8E702A800230D4C00F8013DFFF7B0F909
:1085980023780BB9FFF7B4FFE3689DF807000133B0
:1085A800E3600123A370FFF7C7F9E3E700F088F859
:1085B800FFF7C2FFDEE700BF00E100E0B04C00209B
:1085C8001FB503788DF800304368019383688DF8F0
:1085D8000830C3680393054A054B684653F82130B1
:1085E80052F82110984705B05DF804FBC44C0020F0
:1085F800CC4C00201FB503788DF8003043680193F8
:1086080083688DF80830C3680393054A054B6846AC
:1086180053F8213052F82110984705B05DF804FB53
:10862800C44C0020CC4C0020F0B5194B0678DFF87C
:1086380070E043F82620174B94460A6943F8262031
:108648004B7F0EF806300C4607460FCC89B06D46B6
:108658000FC594E80F0085E80F001EF80630049651
:1086680053B1BCF1000F0C4A694608BF0022381DFF
:1086780000F0E6FD09B0F0BDBCF1000F074A6946FD
:1086880008BF002207F10C0000F0AEFBF2E700BFC4
:10869800CC4C0020C44C0020C9850200FD85020096
:1086A800D44C0020054A13792BB9012110601171AF
:1086B8005371184670478520704700BFD84C00207A
:1086C800074B1A68D2075FBFC02283F80023012234
:1086D8001A604FF080430122C3F81825704700BF85
:1086E80000E100E0044B01221A604FF08042D2F80A
:1086F8001834DB03FBD470470C000040154B07B55A
:108708001A687AB100221A601B680093009B4FF028
:1087180080430122C3F808230F4B587910B95A71C6
:108728001B6898470D4B1A6882B100221A601B68B3
:108738000193019B4FF080430222C3F80823064BA4
:108748001B68012003B05DF804EB184703B05DF81F
:1087580004FB00BF00010040D84C00200401004089
:1087680000F1804000F5C040002382B00360036838
:108778000193019B02B0704703681F2B83BF03F06E
:108788001F03036001484FF0A040704700030050EA
:1087980007B502AB43F8040D1846FFF7EDFF019B40
:1087A80000EB8300D0F8003723F44033C0F80037DB
:1087B800D0F8003743EA0141C0F8001703B05DF86C
:1087C80004FB0000054B4FF0FF32072843F8202038
:1087D80084BF1B1883F85820704700BFE04C002066
:1087E80010B5164C94F86A3033BBFF21E2180133F8
:1087F800302B82F83010F9D10021C8B2FFF7E2FF20
:1088080001310C29F9D1062200210D4805F02FF875
:108818000C4BC02283F8062340221A604FF4BE7026
:10882800FFF79EFF084B4FF00042C3F804230123D3
:1088380084F86A30002010BD0820FCE7E04C0020D6
:10884800444D002000E100E000600040034B93F835
:108858006A00003018BF0120704700BFE04C0020BC
:10886800F7B5404F3B18044693F93030002B944637
:1088780075DA8B78C3F34003002B15BF0025082554
:1088880008200C20854202D1042003B0F0BD57F81F
:10889800252001324FEA850649D1381947F825C005
:1088A80080F8305013B97B1983F858408B785A07F1
:1088B8001BD4D8073DD502A840F8084DFFF75CFF48
:1088C800009B00EB8300D0F8003723F00203C0F8C8
:1088D80000372548E20804F0070C012303FA0CF3DB
:1088E80010F802C043EA0C038354887891F800C05A
:1088F80010F002002AD006F1804303F5C043240299
:10890800D3F8102522F44F3222F44072C3F8102510
:108918004FEA0C4CD3F8102504F47C540CF4403C7A
:1089280044EA0C041443C3F810450020ADE70135B0
:10893800A8E702A84A7840F8044DFFF71DFF019BFD
:1089480003F5E073920040F82320C2E7083D3D4458
:1089580095F8604044EA8C1C85F860C095E70820CB
:1089680093E700BFE04C0020444D002073B5224C33
:108978002518064695F93020072A1ADD224492F870
:1089880058309B09032B10D102A840F8046DFFF75B
:10899800F3FE019AD0F81035D340DB0707D4022143
:1089A8003046FFF7F5FE02B070BD012BF7D003216A
:1089B800F6E7D3B2072BF6D8930003F1804303F50B
:1089C800C043D3F8100540F00100C3F8100502F1C8
:1089D8004000800080B2FFF7C3FE0029E3D095F97C
:1089E800303054F82330002BDDD0012303FA02F293
:1089F800024BC3F80423D6E7E04C00200060004097
:108A080007B502AB43F8040D1846FFF7B5FE019B06
:108A1800D0F81005D84000F0010003B05DF804FB61
:108A28002DE9F04F002489B0CDE902445F4A604E39
:108A3800604D01211368A2F5C040012B80B206D118
:108A4800D6F804330B4202D0FFF78AFE0C430432F7
:108A5800AA424FEA4101EDD1574B1B68012B0ED1B9
:108A68004FF4BE70FFF77CFE4FF0A04344F0004483
:108A7800D3F810350293514BD3F81035039314F003
:108A8800FF0F1AD04E4F00250126344210D0AB00FC
:108A980003F1804303F5C043D3F81005D3F810154C
:108AA80057F82530C0F30520C1F3014103B19847B9
:108AB8000135082D4FEA4606E7D1002C72DA04AEDC
:108AC8000023049373604FF0FF33CDE906333C4F26
:108AD8004FF0010800252C467B1993F96020531CA0
:108AE80047D0D2B222F0C00908A84FEAD90300EB58
:108AF800030B02F007011BF8080C08FA01F1084201
:108B080037D007EB0900920990F9300057F820A0F8
:108B1800BAF1000F05D1032A2BD1F05C0843F054B9
:108B280001E0032AF9D001A8CDF80490FFF724FE4C
:108B3800019B03F5E07350F823301BF8180C08422A
:108B4800C3F3014305D0022B13D1032A0BD11146DD
:108B580004E0032B0DD1032A05D102214846FFF773
:108B680017FE0134E4B2BAF1000F02D011464846AC
:108B7800D0470135042DAFD1A4B14FF0A0430299DD
:108B8800D3F8102503F540739142D3F8103502D17C
:108B98000399994206D002920393049A059B069280
:108BA800079397E709B0BDE8F08F00BF0061004068
:108BB80000600040206100407C61004000030050DC
:108BC800E04C0020014B1B68184700BF4C4D0020AB
:108BD8000D4B984237B50D4610D102A8002300F876
:108BE800013DFEF785FE094B1C7914B901221D6071
:108BF8001A719DF80700FEF79FFE14B9002003B014
:108C080030BD1120FBE700BF002000404C4D002084
:108C18000023435082B043580193019B02B0704730
:108C28000A4610B54FF48E71FFF7F2FF136A916888
:108C3800C95C136A01331362C0F81C1510BD0246E3
:108C480008B54FF492710068FFF7E2FF4FF48471A2
:108C58001068FFF7DDFF136801221A6008BD8B69F1
:108C68000A4610B54FF4847123B9FFF7D1FFD0F845
:108C7800183510BDFFF7CCFF536AD168D0F8180536
:108C8800C854536A01335362F3E700001FB5012348
:108C98008DF80030044BCDE90110D3E90012684685
:108CA800904705B05DF804FB544D002030B54C4AA0
:108CB800D2F8043313F4007F85B015464FD0D2F8AC
:108CC8002431002B4BD04FF492711046FFF7A0FFD0
:108CD8004FF40173C2F80833424B93F8291009B9CD
:108CE800012151603E4902228DF80020D1F88024EC
:108CF800C1F8802403929A690292DA6801920022EC
:108D0800C3E906226846D3E9001290473448D0F8F0
:108D18001C315BB133490A6A4B699A420A464BD205
:108D280091F82830002B47D1FFF77AFF2C4AD2F868
:108D3800443193B14FF4A2711046FFF769FF294BF4
:108D480093F8291009B1012111609A692AB100220A
:108D58009A61586AD968FFF799FF05B030BDD5F810
:108D680004335B07D2D5D5F80831002BCED01D4C83
:108D78001B482146FFF773FF636AA2699A4223469C
:108D8800C4D1E269E1684AB12369E3600023606AFB
:108D9800A261E3616362FFF779FFB7E794F82920DE
:108DA8000AB901226A600E4A4FF40170C2F808033A
:108DB80000229A61586AEEE74FF48E710848FFF76F
:108DC80027FF51690029B1D00023029191688DF8DD
:108DD8000030019153616846D2E900139847A5E72E
:108DE80000200040544D00202DE9F843624F0479DB
:108DF80091462C2202FB0472064692F82A200D4660
:108E0800002A40F0B3805D490068FFF7E1FE804624
:108E1800002840F0AE8029684A1C10D01F2987BF5F
:108E280001F01F03564A0B464FF0A042012098401C
:108E380003F5E073C2F80805032042F823006868C8
:108E4800431C0DD01F288BBF00F01F0303464C4A5C
:108E58004FF0A04203F5E0734FF0000C42F823C036
:108E68003368AA6995F814C0C3F824256A7DBCF153
:108E7800010F4CEA0202C3F86C25C3F81405C3F8C5
:108E88000C152BD1A968481C0DD01F298BBF01F0E8
:108E98001F020A463A484FF0A04002F5E0724FF030
:108EA800000C40F822C0E868421C13D01F2887BF76
:108EB80000F01F0C324A84464FF0A0424FF0010EDA
:108EC8000EFA0CFE0CF5E07CC2F808E54FF0030E34
:108ED80042F82CE0C3F80805C3F810152C236343A7
:108EE800FA18C2F804902A69FA50B9F1000F2AD08A
:108EF8004FF48E7130682D7FFFF78AFE30684FF48B
:108F0800A271FFF785FE32681E4BC2F80433120BBC
:108F180051B20029A8BF01F160404FEA4513BABF1A
:108F2800194802F00F0500F56140DBB2B4BF4355A4
:108F380080F8003302F01F02012303FA02F2490904
:108F4800124B43F8212033680422C3F800252C2350
:108F580003FB04730022C3E9062283F829205A611F
:108F6800012283F82A204046BDE8F8834FF008081C
:108F7800F9E74FF01108F6E7544D0020B58C0200D0
:108F8800000300508000020014ED00E000E100E062
:108F98002DE9F843224F06794FF02C0909FB067496
:108FA80080466569002D37D16261A16025624FF462
:108FB8008E71006884F82850FFF72AFED8F8000060
:108FC800012383602146FFF72BFE6368A1462BBB74
:108FD800D8F80050226A63699A4212D3D8F8003050
:108FE800D3F81C21002AFBD00122DA6000202C23B0
:108FF80003FB067600237361BDE8F88394F82830F4
:1090080043B9D5F81C31002BF8D049462846FFF75C
:1090180007FEDFE70F20EAE71120EDE72846EBE738
:10902800544D00200379044A2C2101FB032358697D
:10903800003018BF01207047544D00202DE9F84337
:10904800384E05792C2303FB056307465C6824B179
:1090580003684FF40170C3F808032C2303FB05636E
:10906800986950B1D86900283ED024B13B684FF4C4
:109078000172C3F80423112034E09A61D960586260
:10908800D8612C2303FB056393F829301BB910B969
:109098003846FFF7D4FD4FF02C0909FB05683868FE
:1090A800D8F80430002B34D14FF4A271FFF7B0FD8B
:1090B800C1463868D0F82431D0F80821D0F84441A6
:1090C800B2B90CB9002BF4D02C2202FB05650022A2
:1090D800AA611BBB24BB95F829103B680122B1B1DA
:1090E8001A600020BDE8F8831961DA610120C8E739
:1090F800002BE9D1002CE7D14946FFF7B0FDD8F89D
:109108002430D8F818209A42D3D82346DCE75A608E
:10911800E7E74FF40173C0F80433E2E70320E1E71F
:109128000F20DFE7544D00200023435082B04358FE
:109138000193019B02B070471FB501238DF80030E1
:10914800044BCDE90110D3E900126846904705B0F9
:109158005DF804FB804D00207FB5374AD2F82461C2
:10916800002E48D010464FF49271FFF7DDFF02231E
:109178008DF80030D2F88034C2F880340393D2F8E6
:109188003C3502932D4BDA6801920022C3E906228E
:109198006846D3E900129047274AD2F844317BB198
:1091A8004FF4A2711046FFF7BFFF244B996939B1FC
:1091B8000021C3E90611D968D2F83C05FFF7BCFFC6
:1091C8001D4AD2F82031A3B14FF490711046FFF731
:1091D800ABFF1A4B596961B1D2F84C1502910022C4
:1091E80099688DF8002001915A616846D3E9001208
:1091F800904704B070BDD2F81031002BCCD04FF49A
:1092080088711046FFF790FF0C4BD2F83C0599691E
:109218008842C1D1DC69D96864B1D2F8005225F01E
:109228002005C2F800521A699C61DA60DE61FFF716
:1092380083FFB1E79C61FAE700200040804D0020E1
:109248002DE9F843664F06799146242202FB0672FF
:10925800044692F820200D46002A40F0BB80614960
:109268000068FFF7B5FC8046002840F0B680286803
:10927800421C10D01F2887BF00F01F035A4A03461C
:109288004FF0A0420121994003F5E073C2F8081598
:10929800032142F8231069684B1C0DD01F298BBF8E
:1092A80001F01F030B46504A4FF0A04203F5E0734C
:1092B8004FF0000C42F823C02368AA6995F814C03F
:1092C800C3F824256A7DBCF1010F4CEA0202C3F8F9
:1092D8006C25C3F80C05C3F814152BD1A968481CD4
:1092E8000DD01F298BBF01F01F020A463E484FF0E0
:1092F800A04002F5E0724FF0000C40F822C0E86888
:10930800421C13D01F2887BF00F01F0C364A844622
:109318004FF0A0424FF0010E0EFA0CFE0CF5E07C67
:10932800C2F808E54FF0030E42F82CE0C3F8080530
:10933800C3F8101524237343FA18C2F804902A6955
:10934800FA50B9F1000F34D04FF4887120682D7F9E
:10935800FFF7EAFE4FF490712068FFF7E5FE4FF43F
:1093680092712068FFF7E0FE20684FF4A271FFF7C2
:10937800DBFE22681D4BC2F80433120B51B20029E0
:10938800A8BF01F160404FEA4513BABF184802F080
:109398000F0500F56140DBB2B4BF435580F80033D8
:1093A80002F01F02012303FA02F24909114B43F8A4
:1093B800212023680822C3F80025242303FB067311
:1093C8000022C3E906225A61012283F82020404680
:1093D800BDE8F8834FF00808F9E74FF01108F6E701
:1093E800804D00206191020000030050100302002C
:1093F80014ED00E000E100E001F06043B3F1005F2C
:109408002DE9F041074632D11C4B0679242505FB8E
:10941800063598466C6964BB6A61A96000684FF4B8
:109428009071FFF781FE4FF4AC713868FFF77CFE4E
:109438003B686A69A968C3F84415C3F8482501223E
:109448009A606A68BAB9D3F82011D3F8582149B993
:10945800002AF8D00F20242303FB0686002373611B
:10946800BDE8F081002A14BF0F200020F3E7102088
:10947800F6E71120F4E72046F2E700BF804D002010
:109488000379044A242101FB03235869003018BFDB
:1094980001207047804D0020F8B501F06043B3F11A
:1094A800005F04460F465ED10379304D242101FB4D
:1094B8000351486820B121684FF40476C1F8086365
:1094C800242101FB03539E6956B1D969002939D07B
:1094D80020B123684FF40472C3F80423112030E04C
:1094E8009A61DF60DE614FF488712068FFF71CFE27
:1094F8004FF4A2712068FFF717FE2368C3F834758C
:10950800C3F8382516BB01221A602279242101FBF1
:109518000251496809BBD3F81041D3F84411D3F874
:10952800240114B909B90028F5D0242303FB0255F6
:109538000023984214BF032018469942AB6118BF14
:109548000F20F8BD1F61DA610126CCE7D3F80022AD
:1095580042F02002C3F80022D7E74FF40472C3F8A0
:1095680004230020EDE71020EBE700BF804D00202A
:109578001F288ABF094B4FF0A04300F01F0003EBE0
:109588008000D0F8003723F44033C0F80037D0F813
:10959800003743EA0141C0F8001770470003005044
:1095A8000220FEF71BBF00002DE9F04781460D465B
:1095B800FEF742FF0328044604D8012D04D024D323
:1095C800022D2FD0BDE8F087194D47003A18A91889
:1095D800AE5C4A7852B1DFF86880164842464FF4CC
:1095E8000041FEF71FF808B988F800903B192B4492
:1095F8009A78114B1A55002EE4D0104B1B68002B9B
:10960800E0D03046BDE8F04718470A48FEF74EF864
:10961800074B04EB440213449E78074B1B5DB3428F
:10962800D0D1E8E7024B00EB40041C446678E2E73F
:10963800084E0020C84D0020214E00201C4E00205E
:10964800A44D002002210078FFF7AEBF08B5094BF2
:109658001B7853B10020FEF78FFE0120FEF78CFE29
:109668000320BDE80840FEF787BEBDE80840FEF7C6
:1096780097BE00BFA54D0020F8B57B4C2378054662
:109688001BB100232370FFF7E1FF172D00F288803C
:10969800DFE805F00C17174354657680888D888DB0
:1096A800959A9A9A9A9AC4C9D1D9E4E4FFF7CEFF59
:1096B8006E48FDF7FBFF6E4B002204461A702046E9
:1096C800F8BD0020FEF730FEF8B10020FEF754FE8A
:1096D800022D0CBF4FF4E1614FF47A61644B1D70A9
:1096E8004FF400404FF4FA740025E0FB01454FF4B5
:1096F8007A7200232046294603F00EFF0022014615
:109708005A48BDE8F840FDF78DBFFEF721FE022D4F
:109718000CBFC8214FF4C871E0E70020FEF704FE33
:1097280040B10020FEF728FE4FF44871504B032249
:109738001A70D5E7FEF70CFEC821F7E70020FEF700
:10974800F3FD38B10020FEF717FE4FF47A61484B5D
:109758000422EDE7FEF7FCFD4FF4C871F7E700209F
:10976800FEF7E2FD48B10020FEF706FE404B052259
:109778001A7041F69A110022C2E7FEF7E9FDF5E7F3
:109788000020FEF72BFE3A4B06221A70002240F604
:10979800CD41B5E70020FEF7DBFD354B07221A70F7
:1097A80000248CE701202070FEF718FEEEE7012068
:1097B8002070FEF713FE00224FF48041A0E7FEF769
:1097C800FEFD2B4B0C22EAE72A482B4EFDF76EFFD5
:1097D800D5F1110504461CD0D8B9012D13D0C823E2
:1097E8005D434FF400474FF4FA7000214FF47A724A
:1097F8000023C7FB050103F08FFE224601461D48E2
:10980800FDF710FF04460220FEF7A2FD0123337086
:1098180055E70220FEF7B0FD0023F8E7FFF716FF33
:10982800134B1222BBE7FFF711FF0020FEF790FD54
:109838000F4B1322B3E7FFF709FF0120FEF788FD5E
:109848000B4B1422ABE7FFF701FF0020FEF780FD6A
:109858000120FEF77DFD064B1522A0E7FEF7AFFDC0
:10986800034B1D709CE700BF184E0020E84D0020F8
:10987800204E0020A84D0020A54D0020044B1B6859
:10988800DB0703D5034B1878FFF7F6BE704700BF18
:10989800144E0020204E0020032801D8FEF7B8BD42
:1098A80000207047044B1B6813F0010301D0FFF739
:1098B800E3BE1846704700BF144E002038B51C4B55
:1098C80018601C4B10F00204054619601AD01A4B98
:1098D8001A480E221A700F22DA7010229A71112279
:1098E8005A72042140F26662FDF76CFB044648B9DF
:1098F800FDF7BCFB044628B90146114A1148FDF79B
:109908007FFE0446EB0711D50120FEF7ADFD6CB9CB
:1099180021460D4A0D48FDF773FE044630B90C4A3E
:109928000C480121BDE83840FDF76ABE204638BD25
:10993800144E00201C4E0020084E0020ACE8020007
:109948004D960200D0E8020085980200D4E8020093
:10995800A9950200CCE80200032812D8012A0BD1ED
:10996800012908D100F10E02D2B200EB40000C4BE5
:109978001A540020704700220129F6D009D3022981
:1099880001D007207047064B00EB40001844427096
:10999800EFE7034B00EB400018448270E9E700BF93
:1099A800084E0020032808B506D8FEF757FD032106
:1099B800FFF7DEFD002008BD0620FCE708B5012200
:1099C80002210020FFF7C8FF08B1072810D107229D
:1099D80002210120FFF7C0FF08B1072808D10021A4
:1099E8000A220846FFF7B8FF10B1072808BF002071
:1099F80008BD00000388102B10B502D0112B1ED013
:109A080010BD1A4C2168B1B901220846FFF7A4FF1E
:109A180008B1072824D1072202210120FFF79CFF63
:109A280008B107281CD1042202210020FFF794FF67
:109A380008B1072814D1236801332360E0E70B4AF3
:109A48001368013B1360002BDAD1FFF7B7FF00283A
:109A5800D6D0074B1B68002BD2D0BDE81040184762
:109A6800034B1B68002BE6D09847E4E72C4E0020F8
:109A7800284E002008B50020FFF794FF08B10628FB
:109A880006D10120FFF78EFF10B1062808BF00207D
:109A980008BD00000D4B10B518600C4629B1012017
:109AA800FFF7FAFE40B102232370094B1B6853B934
:109AB800BDE81040FFF782BFFFF7EEFE08B10B23A9
:109AC800F2E72070F1E7002010BD00BF284E00200B
:109AD8002C4E002075DF704700BF184676DF7047B0
:109AE80000BF18467FDF704700BF18468FDF7047FA
:109AF80000BF184600B585B0134A144BD31ADB08CB
:109B08001B0443F0040312491846FCF797FF114859
:109B180002F0EAFF0390039B0293029B002B02D002
:109B28000298FDF7B9FA0120FFF7BCFE0390039BEA
:109B38000193019B002B02D00198FDF7ADFA00BFFD
:109B480005B05DF804FB00BF38E1020010E1020037
:109B580054E902006C4E002070B58AB00590059B50
:109B68001B78062B04D0072B0ED0042B31D03DE0F8
:109B7800059B5B680893089B0793079B002B34D0D1
:109B88000798FDF789FA30E0059B5B680993194A45
:109B9800194BD31ADB081B0443F00300099B5B78BD
:109BA8001D46099B9B781E46099BDB781A46099B34
:109BB8001B791946099B5B791C46099B9B79039382
:109BC80002940191009233462A460C49FCF75AFF49
:109BD8000CE0084A084BD31ADB081B0443F00303C4
:109BE80007491846FCF72AFF00E000BF00BF0AB08B
:109BF80070BD00BF38E1020010E1020060E9020018
:109C080090E9020000B589B06B4610220021184681
:109C180003F02DFE01238DF8043001238DF80C305C
:109C28006B461A4A19461A4802F0FCFE0790079B31
:109C38000693069B002B02D00698FDF72DFA154ACD
:109C48000321134802F050FE0790134A00211048E0
:109C580002F04AFE0790079B0593059B002B02D054
:109C68000598FDF719FA00220521094802F09AFE25
:109C78000790079B0493049B002B02D00498FDF7E0
:109C88000BFA00BF09B05DF804FB00BF619B02003E
:109C98006C4E002050E9020044E9020000B583B090
:109CA80001900199034803F0E3F800BF03B05DF8A1
:109CB80004FB00BF304E002000B585B001900B4674
:109CC8008DF80330002303939DF80330013BDBB28A
:109CD8008DF80B3001238DF80A30A7E09DF90A3082
:109CE800013B042B00F2938001A252F823F000BF3D
:109CF8000D9D0200239D02004F9D02008D9D0200D4
:109D0800C99D02009DF90B30019A13441B7803F09A
:109D18000F03039A134403937AE09DF90B30019AD9
:109D280013441B78DB0003F078029DF90B3001998E
:109D38000B441B785B0003F01E0313441A46039B75
:109D48001344039364E09DF90B30019A13441B7884
:109D58009B0103F470729DF90B3001990B441B7839
:109D68005B0103F4F0731A449DF90B3001990B441D
:109D78001B789B0003F03C0313441A46039B1344CF
:109D8800039345E09DF90B30019A13441B789B021D
:109D980003F470529DF90B3001990B441B781B0199
:109DA800DBB2D21A9DF90B3001990B441B78DB000A
:109DB80003F07803D31A1A46039B1344039327E04E
:109DC8009DF90B30019A13441B785B0303F4F032BE
:109DD8009DF90B3001990B441B78DB0203F4F04327
:109DE8001A449DF90B3001990B441B781B01DBB217
:109DF8001A449DF90B3001990B441B781B0203F49C
:109E08007063D31A1A46039B1344039300E000BF00
:109E18009DF90A30DBB20133DBB28DF80A309DF9C7
:109E28000B30DBB2013BDBB28DF80B309DF90B3008
:109E3800002BBFF653AF084A084BD31ADB081B04A4
:109E480043F00403039A06491846FCF7FBFD039BFD
:109E5800184605B05DF804FB38E1020010E1020085
:109E680004EA020000B587B001900B46ADF8023055
:109E780013468DF801309DF8012013469B001344CA
:109E88005B0013446C4A1344184603F06CFD034608
:109E98008DF817300023049300238DF80F309DF8B8
:109EA8000130082B73D801A252F823F0879F0200D3
:109EB800D99E0200579F0200679F0200FF9E020082
:109EC800259F0200779F0200339F0200419F0200F6
:109ED800BDF80230092B07D0162B08D0052B00D06F
:109EE80008E001238DF80F30544B049302E0544BE3
:109EF800049300BF5AE0BDF802301A2B07D01C2B80
:109F080008D0182B00D008E04E4B049305E04E4BC8
:109F1800049302E04D4B049300BF47E0BDF80230C4
:109F2800142B36D14A4B049333E0BDF80230082B8A
:109F380031D1484B04932EE0BDF802300B2B2CD9BD
:109F4800BDF80230102B28D8434B049325E0BDF808
:109F58000230042B23D101238DF80F301FE0BDF808
:109F68000230082B1DD101238DF80F3019E0BDF800
:109F78000230072B17D101238DF80F3013E0BDF8FD
:109F880002300A2B11D101238DF80F300DE000BFEC
:109F98000CE000BF0AE000BF08E000BF06E000BF19
:109FA80004E000BF02E000BF00E000BF049B1B7894
:109FB800002B3AD007E0049B013304939DF8173037
:109FC80001338DF81730049B1B78302B06D19DF890
:109FD8001730019A13441B782C2BECD0049B1B7868
:109FE800312B0DD19DF81730019A13441B782F2B74
:109FF80006D99DF81730019A13441B78392BDAD902
:10A008009DF817309BB2BDF802209A420DD1134A31
:10A01800134BD31ADB081B0443F0040311491846F9
:10A02800FCF70CFD01238DF80F309DF80F30184612
:10A0380007B05DF804FB00BFE0E8020018EA020080
:10A0480020EA020034EA020048EA02005CEA020060
:10A0580074EA020084EA020088EA020038E1020099
:10A0680010E1020090EA020000B587B003900B46A9
:10A078000192ADF80A3000238DF81730BDF80A3088
:10A08800012219460398FFF7EDFE0346012B6BD119
:10A098000E224149019803F0C1FBBDF80A30052B97
:10A0A8005FD9039B06331B78312B04D0322B0CD09D
:10A0B800302B14D014E0019B03331A78019B03332F
:10A0C80042F00102D2B21A700AE0019B03331A78F7
:10A0D800019B033342F00202D2B21A7000E000BFC3
:10A0E800039B08331B78302B0CD0312B00D00AE0AF
:10A0F800019B03331A78019B033342F00402D2B266
:10A108001A7000E000BFBDF80A30162B29D10023D1
:10A118008DF8163021E09DF816300A335B001A4698
:10A12800039B13441B781B015AB29DF816300B335E
:10A138005B001946039B0B441B785BB213435AB26E
:10A148009DF8163006331946019B0B44D2B21A709B
:10A158009DF8163001338DF816309DF81630052B12
:10A16800D9D901238DF817309DF81730002B0DD061
:10A178000A4B0E221A800A4A0A4BD31ADB081B0420
:10A1880043F0040308491846FCF758FC9DF81730BB
:10A19800184607B05DF804FBFA3C0020424F002047
:10A1A80038E1020010E10200A0EA020000B587B021
:10A1B80003900B460192ADF80A3000238DF8173052
:10A1C800BDF80A30022219460398FFF74BFE0346F2
:10A1D800012B07D10E220F49019803F01FFB012321
:10A1E8008DF817309DF81730002B0DD00A4B02223E
:10A1F8001A800A4A0A4BD31ADB081B0443F00403EB
:10A2080008491846FCF71AFC9DF81730184607B09D
:10A218005DF804FB083D0020424F002038E10200B1
:10A2280010E10200A0EA020000B587B003900B46D7
:10A238000192ADF80A3000238DF81730BDF80A30C6
:10A24800032219460398FFF70DFE0346012B07D199
:10A258000E220F49019803F0E1FA01238DF8173017
:10A268009DF81730002B0DD00A4B02221A800A4A9B
:10A278000A4BD31ADB081B0443F0040308491846A9
:10A28800FCF7DCFB9DF81730184607B05DF804FBB7
:10A29800163D0020424F002038E1020010E1020084
:10A2A800A0EA020000B589B003900B460192ADF810
:10A2B8000A3000238DF81F30002304934FF47F03E6
:10A2C800069300238DF81730BDF80A30042219468A
:10A2D8000398FFF7C7FD0346012B40F053810E2278
:10A2E800B449019803F09AFA039B09331B78312B80
:10A2F80006D1019B1B7843F00103DAB2019B1A7067
:10A30800039B0B331B78303B042B3AD801A252F83D
:10A3180023F000BF31A302003BA302004FA30200B9
:10A3280063A3020077A30200019B0233FF221A7085
:10A3380028E0019B02331A78019B023342F00102A4
:10A34800D2B21A701EE0019B02331A78019B0233C5
:10A3580042F00202D2B21A7014E0019B02331A785A
:10A36800019B023342F00302D2B21A700AE0019B49
:10A3780002331A78019B023362F07F02D2B21A705C
:10A3880000E000BF039B0D331B78312B04D0322B28
:10A398000CD0302B14D014E0019B03331A78019BA6
:10A3A800033342F00102D2B21A700AE0019B033370
:10A3B8001A78019B033342F01002D2B21A7000E0FF
:10A3C80000BF039B0F331B78303B032B2ED801A211
:10A3D80052F823F035A40200EDA3020007A40200FE
:10A3E80021A40200019B04331A78019B043342F034
:10A3F8000102D2B21A7001238DF81F3017E0019BB9
:10A4080004331A78019B043342F00202D2B21A7064
:10A4180002238DF81F300AE0019B04331A78019B50
:10A42800043342F00302D2B21A7000E000BF9DF874
:10A438001F30002B5AD000238DF8163050E09DF8BD
:10A44800163011335B001A46039B13441B78313BCB
:10A45800042B3FD801A252F823F000BF79A40200D0
:10A468008DA40200A1A40200B5A40200C9A40200A0
:10A47800019B04331A78019B043342F00402D2B2E0
:10A488001A7028E0019B04331A78019B043342F0C8
:10A498000802D2B21A701EE0019B04331A78019B9D
:10A4A800043342F01002D2B21A7014E0019B043354
:10A4B8001A78019B043342F02002D2B21A700AE0E3
:10A4C800019B04331A78019B043342F04002D2B254
:10A4D8001A7000E000BF9DF8163001338DF8163071
:10A4E8009DF816209DF81F309A42A8D39DF81F307A
:10A4F80011331A46039B13441B78312B08D1019B57
:10A5080005331A78019B053342F00102D2B21A7062
:10A518009DF81F305B0013331A46039B1344052133
:10A528001846FFF7C9FB049000238DF81E3022E07F
:10A538009DF81E3007331A46019B13441978049A74
:10A54800069B1A409DF81E30C3F10203DB0022FA75
:10A5580003F3DAB29DF81E3007331846019B034413
:10A568000A43D2B21A70069B1B0A06939DF81E3046
:10A5780001338DF81E309DF81E30022BD8D90123E7
:10A588008DF817309DF81730002B0DD00A4B0A2292
:10A598001A800A4A0A4BD31ADB081B0443F0040347
:10A5A80008491846FCF74AFA9DF81730184609B0CA
:10A5B8005DF804FB243D0020424F002038E10200F2
:10A5C80010E10200A0EA020000B587B003900B4634
:10A5D8000192ADF80A3000238DF81730BDF80A3023
:10A5E800062219460398FFF73DFC0346012B07D1C5
:10A5F8000E220F49019803F011F901238DF8173045
:10A608009DF81730002B0DD00A4B02221A800A4AF7
:10A618000A4BD31ADB081B0443F004030849184605
:10A62800FCF70CFA9DF81730184607B05DF804FBE4
:10A63800403D0020424F002038E1020010E10200B6
:10A64800A0EA020000B587B003900B460192ADF86E
:10A658000A3000238DF81730BDF80A300522194654
:10A668000398FFF7FFFB0346012B3ED10E222B492F
:10A67800019803F0D3F8039B0833039300238DF864
:10A6880016302BE09DF8163002331A46019B13440E
:10A698001B785AB29DF816305B001946039B0B4491
:10A6A8001B781B0159B29DF816305B0001330398E3
:10A6B80003441B78303BDBB25BB20B435BB2134302
:10A6C8005AB29DF8163002331946019B0B44D2B298
:10A6D8001A709DF8163001338DF816309DF8163033
:10A6E800052BCFD901238DF817309DF81730002B93
:10A6F8000DD00B4B08221A800A4A0B4BD31ADB08E1
:10A708001B0443F0040309491846FCF797F99DF820
:10A718001730184607B05DF804FB00BF323D002033
:10A72800424F002038E1020010E10200A0EA0200D6
:10A7380010B586B003900B460192ADF80A3000239D
:10A748008DF81730BDF80A30082219460398FFF72C
:10A7580089FB0346012B31D1039B03F10B02BDF8A2
:10A768000A30DBB20B3BDBB219461046FFF7A4FAFE
:10A7780002461D4B1A601C4B1B68DA031A4B1B68F8
:10A788009B031A44184B1B685B031A44164B1B683F
:10A79800DB021A44144B1B685B021A44124B1B68F9
:10A7A8009B011A44104B1B685B0113444FF00004D3
:10A7B8000E4AC2E9003402238DF817309DF817308D
:10A7C800002B0CD00A4A0B4BD31ADB081B0443F0AE
:10A7D8000400054B1B681A460749FCF733F99DF836
:10A7E8001730184606B010BD304F0020384F0020F3
:10A7F80038E1020010E10200C0EA020000B587B0AB
:10A8080003900B460192ADF80A3000238DF81730FB
:10A81800BDF80A30072219460398FFF723FB0346C1
:10A82800012B22D10E221D49019802F0F7FF039B4C
:10A8380007331B78312B08D0322B0ED0302B00D0A9
:10A8480014E003238DF8173010E0019B0133012237
:10A858001A7003238DF8173008E0019B0133022298
:10A868001A7003238DF8173000E000BF9DF81730E9
:10A87800002B0DD00A4B02221A800A4A0A4BD31A1F
:10A88800DB081B0443F0040308491846FCF7D6F814
:10A898009DF81730184607B05DF804FB4E3D0020C0
:10A8A800424F002038E1020010E10200A0EA020055
:10A8B80000B589B003900B460192ADF80A30002329
:10A8C8008DF81F304FF47F030693BDF80A3000223D
:10A8D80019460398FFF7C6FA0346012B38D10E2212
:10A8E8002649019802F09AFF254B1B680493002320
:10A8F8008DF8173022E09DF8173001331A46019B76
:10A9080013441978049A069B1A409DF81730DB0007
:10A91800C3F1100322FA03F3DAB29DF817300133BA
:10A928001846019B03440A43D2B21A70069B1B0ABD
:10A9380006939DF8173001338DF817309DF81730BE
:10A94800022BD8D902238DF81F300E4B04221A800F
:10A958009DF81F30002B0AD00B4A0C4BD31ADB088A
:10A968001B0443F004030A491846FCF767F89DF8EE
:10A978001F30184609B05DF804FB00BFEC3C00200E
:10A98800304F0020424F002038E1020010E1020061
:10A99800DCEA020010B586B003900B460192ADF8D0
:10A9A8000A30FF238DF8163000238DF8153026E085
:10A9B8009DF8152013469B0013445B0013446C4A12
:10A9C8009C189DF8152013469B0013445B00134404
:10A9D800674A1344184602F0C6FF03461A46214642
:10A9E800039802F0EBFE0346002B03D19DF81530C7
:10A9F8008DF816309DF8153001338DF815309DF817
:10AA08001530082BD4D99DF81630082B00F2858014
:10AA180001A252F823F000BF45AA02005BAA020077
:10AA280071AA020087AA02009DAA0200B3AA020026
:10AA3800C9AA0200DFAA0200F5AA0200BDF80A307E
:10AA4800019A19460398FFF733FF03468DF817302C
:10AA580068E0BDF80A30019A19460398FFF704FB2D
:10AA680003468DF817305DE0BDF80A30019A1946A3
:10AA78000398FFF79BFB03468DF8173052E0BDF8AB
:10AA88000A30019A19460398FFF7CEFB03468DF862
:10AA9800173047E0BDF80A30019A19460398FFF7C6
:10AAA80001FC03468DF817303CE0BDF80A30019AE6
:10AAB80019460398FFF7C6FD03468DF8173031E0B5
:10AAC800BDF80A30019A19460398FFF77DFD034641
:10AAD8008DF8173026E0BDF80A30019A1946039818
:10AAE800FFF78CFE03468DF817301BE0BDF80A30DF
:10AAF800019A19460398FFF71BFE03468DF8173095
:10AB08009DF81730002B0CD0019A0A211948FFF73D
:10AB1800CFFE03468DF8173003E000238DF8173079
:10AB280000E000BF9DF81730002B1BD1124A134BD1
:10AB3800D31ADB081B0443F0040311491846FBF73A
:10AB48007DFF104B1B78002B0CD10E4B09221A707D
:10AB58000120FDF743FC0C4B0B4A4FF4805118467B
:10AB6800FCF760FD9DF81730184606B010BD00BF11
:10AB7800E0E8020000EB020038E1020010E1020008
:10AB88000CEB0200404F0020FC4E002000B585B0C1
:10AB98000190019B1B78012B65D0022B52D0002B12
:10ABA80000D072E03B4B1B881A463B4B13441846B7
:10ABB800FCF760FE374B1B8801339AB2354B1A807D
:10ABC800344B1B88013B344AD35C0A2B05D0314BEC
:10ABD8001A88324B1B889A4256D3314A314BD31AC2
:10ABE800DB081B0443F004032F491846FBF726FF34
:10ABF8002B4A2C4BD31ADB081B0443F00400254BCB
:10AC08001B881A462449FBF74FFF224B1B881A461C
:10AC18002149264802F018FA0390039B082B0AD012
:10AC2800039B132B07D0039B0293029B002B02D09C
:10AC38000298FCF731FA039B132BE6D0154B002240
:10AC48001A8021E0164A174BD31ADB081B0443F07D
:10AC5800010317491846FBF7F1FE019B5B6818468C
:10AC6800FCF71AFA11E00E4A0E4BD31ADB081B0444
:10AC780043F001030F491846FBF7E0FE019B5B68B0
:10AC88001846FCF709FA00E000BF00BF05B05DF800
:10AC980004FB00BF444F0020484F0020E83C002040
:10ACA80038E1020010E1020020EB0200304E0020E3
:10ACB80040EB020074EB020082B00190019B1B780C
:10ACC800102B16D0019B1B78702B12D0019B0133DF
:10ACD800094A12781A70084B1B78FF2B03D1064BD0
:10ACE80001221A7005E0044B1B780133DAB2024BDB
:10ACF8001A7000BF02B070475C3D002030B58FB0BD
:10AD080001900091009B1B78012B5AD0022B00F078
:10AD1800FA81002B00D007E2AC4AAD4BD31ADB080E
:10AD28001B0443F00303AB491846FBF787FE009B5F
:10AD38005B881B01019AD018009B5988009B0E3331
:10AD48001A4602F0C9F90C900C9B0893089B002B3B
:10AD580002D00898FCF7A0F9009B5B881B01019AB8
:10AD68001344184602F04EF90C900C9B0793079B6E
:10AD7800002B02D00798FCF78FF9944A944BD31A0A
:10AD8800DB081B0443F0030393491846FBF756FE00
:10AD980002F064F80346012B03D10320FDF7D8FA2B
:10ADA80007E002F05BF80346002B02D10220FDF712
:10ADB800CFFA8A4B1B78012B00F2B381FEF79AFE7B
:10ADC800AFE1019B5B881A46854B9B56012B40F0EF
:10ADD8006C81009B9868009B9B89824A1946FFF703
:10ADE800D9FD03468DF82F309DF92F30012B69D1FD
:10ADF80000238DF8373060E09DF93730784AD35614
:10AE0800002B53D17748FFF757FF704A704BD31A7E
:10AE1800DB081B0443F0040373491846FBF70EFED6
:10AE28009DF937301B01714A9818714B1B881A46D7
:10AE38006C4902F009F90C906E4BD3E900342343B6
:10AE480034D0684B1B781B09DBB2012B2ED15F4A2B
:10AE58005F4BD31ADB081B0443F00400664B1B68E6
:10AE68001A466649FBF7EEFD654D624BD3E90012C1
:10AE78004FF000034FF00004D40344EA5144CB03DD
:10AE880013F5FA7044F100014FF47A724FF00003A1
:10AE980002F042FB03460C461946594B1A4628460F
:10AEA800FCF7C0FB9DF83720564B1A709DF93730D8
:10AEB800DBB20133DBB28DF837309DF83730012B28
:10AEC8009AD930E19DF92F30022B2CD100238DF82F
:10AED800373023E09DF93730414AD356012B16D13C
:10AEE8003A4A3B4BD31ADB081B0443F00403464998
:10AEF8001846FBF7A3FD9DF937301B013B4A98180C
:10AF08003B4B1B881A46374902F09EF80C909DF976
:10AF18003730DBB20133DBB28DF837309DF837308C
:10AF2800012BD7D9FFE09DF92F30032B40F0FB8090
:10AF3800264A274BD31ADB081B0443F00403334982
:10AF48001846FBF77BFD274B5B78022B3AD1002391
:10AF58008DF8373031E09DF93730214AD356B3F1B7
:10AF6800FF3F23D09DF93730204A1B011344023399
:10AF78001B8813211846FEF7B1FD0C900C9B082B7B
:10AF880014D0124A124BD31ADB081B0443F00403F3
:10AF98009DF937201E491846FBF754FD0C9B099371
:10AFA800099B002B02D00998FCF776F89DF93730F9
:10AFB800DBB20133DBB28DF837309DF83730012B27
:10AFC800C9D9B0E000238DF8373069E038E10200D4
:10AFD80010E10200A0EB0200B4EB02002E4F0020AB
:10AFE8002C4F00201C4F0020E4EB0200304E0020C4
:10AFF800424F0020384F0020304F0020F8EB02006D
:10B00800DC4E00202F4F002018EC02002CEC020030
:10B018003CEC02009DF93730454AD3561A46454B59
:10B028005B789A4235D19DF93730434A1B01134466
:10B0380002331B8813211846FEF750FD0C900C9B19
:10B04800082B26D03B4B5B78012B0DD13B4A3C4B60
:10B05800D31ADB081B0443F004039DF93720394950
:10B068001846FBF7EFFC0CE0344A354BD31ADB08E3
:10B078001B0443F004039DF9372033491846FBF7B6
:10B08800E1FC0C9B0A930A9B002B02D00A98FCF760
:10B0980003F89DF93730DBB20133DBB28DF8373076
:10B0A8009DF83730012BB5D93DE000238DF83730B6
:10B0B80024E09DF937301E4AD356012B17D11F4A79
:10B0C8001F4BD31ADB081B0443F004031F4918461F
:10B0D800FBF7B4FC9DF937301B01174A9818009B01
:10B0E8009968009B9B891A4601F0AEFF0C909DF968
:10B0F8003730DBB20133DBB28DF837309DF83730AB
:10B10800012BD6D90FE00D4A0D4BD31ADB081B04CF
:10B1180043F003030E491846FBF790FCFEF7EAFCE0
:10B1280002E000BF00E000BF00BF0FB030BD00BFAD
:10B138002C4F00201C4F0020304E002038E1020028
:10B1480010E102005CEC020080EC0200ACEC0200B2
:10B15800BCEC020000B587B003468DF8073000202C
:10B16800FEF7A0FB0590059B0493049B002B02D0DF
:10B178000498FBF791FF9DF80730002B00D00BE0F7
:10B18800FEF778FC0590059B0393039B002B02D0E8
:10B198000398FBF781FF00BF0123184607B05DF84D
:10B1A80004FB000010B58EB001900091019B0433A0
:10B1B8000C9300238DF83730019B1B88103B462BDE
:10B1C80000F2338201A252F823F000BFF1B202006C
:10B1D800DDB3020033B6020003B5020033B6020045
:10B1E80033B6020033B6020033B6020033B60200AB
:10B1F80033B6020033B60200E1B4020033B60200EF
:10B2080033B6020033B6020027B5020033B6020097
:10B218004BB5020033B6020033B6020033B6020063
:10B2280033B6020033B6020033B6020033B602006A
:10B2380033B6020033B6020033B6020033B602005A
:10B2480033B6020033B6020033B6020033B602004A
:10B2580033B6020033B6020033B6020033B602003A
:10B2680033B6020033B6020033B6020033B602002A
:10B2780033B6020033B602008FB5020033B60200BF
:10B2880033B6020033B6020033B6020033B602000A
:10B2980033B6020033B6020033B6020033B60200FA
:10B2A80033B6020033B6020033B6020033B60200EA
:10B2B80033B6020033B6020033B6020033B60200DA
:10B2C80033B6020033B6020033B6020033B60200CA
:10B2D80033B6020033B6020033B6020033B60200BA
:10B2E80033B60200FDB502000C9B1B881B01B34A54
:10B2F80098180C9B1B880022194601F0EDFE0B9054
:10B308000B9B0593059B002B02D00598FBF7C4FE09
:10B31800AB4AAC4BD31ADB081B0443F0040401F01E
:10B328009DFD03461A46A8492046FBF78BFB01F012
:10B3380095FD034619460C9B1B881A4649B2A34B38
:10B3480099540720FEF7AEFA0B900B9B0493049BCD
:10B35800002B02D00498FBF79FFE0C9B1B881A4613
:10B368004FF4337303FB02F3994A1A440C9B1B886E
:10B378001946104600F0E0FE0B900B9B0393039BCD
:10B38800002B02D00398FBF787FE924B1B78013302
:10B39800DAB2904B1A7000238DF8363015E0884ADF
:10B3A800884BD31ADB081B0443F004009DF83610C1
:10B3B8009DF83630854AD3560A468749FBF74CFB39
:10B3C8009DF8363001338DF836309DF83630012B34
:10B3D800E5D937E17A4A7B4BD31ADB081B0443F0E3
:10B3E80003000C9B1B881A460C9B1B797B49FBF7B7
:10B3F80033FB00238DF8353014E09DF83530734A5F
:10B40800D2560C9B1B881946704B5B569A4204D146
:10B418009DF8373001338DF837309DF835300133DA
:10B428008DF835309DF83530012BE6D9644A654BE7
:10B43800D31ADB081B0443F004039DF8372068493E
:10B448001846FBF7FFFA9DF83730012B19D10C9BF2
:10B458001B881A465D4B9B5602331846FCF78CFF37
:10B46800574A584BD31ADB081B0443F004000C9BC3
:10B478001B881A46554B9B5602331A465949FBF707
:10B48800E1FA0C9B1B881A46504BFF219954514BEB
:10B498001B78013BDAB24F4B1A7000238DF8343019
:10B4A80015E0474A474BD31ADB081B0443F0040056
:10B4B8009DF834109DF83430444AD3560A4646491C
:10B4C800FBF7CAFA9DF8343001338DF834309DF813
:10B4D8003430012BE5D9B5E00C9B1B79022B40F0E9
:10B4E800A680374A374BD31ADB081B0443F0030303
:10B4F8003D491846FBF7A2FA99E0019B988800237A
:10B5080000228521FEF7EEFA0B900B9B0693069B13
:10B51800002B00F08E800698FBF7BEFD89E00C9B9F
:10B528001A880C9B043319461046FEF7D3FA0B9081
:10B538000B9B0793079B002B7DD00798FBF7ACFD6F
:10B5480079E01F4A1F4BD31ADB081B0443F004039E
:10B5580026491846FBF772FA00238DF808300023B5
:10B568008DF80930019B9B8802AA11461846FEF700
:10B57800BDFA0B900B9B0893089B002B5DD0089895
:10B58800FBF78AFD59E00E4A0E4BD31ADB081B0461
:10B5980043F0040316491846FBF750FA019B9B88B1
:10B5A80013211846FEF79AFA0B900B9B0993099BF7
:10B5B800002B44D00998FBF76FFD40E0304E002087
:10B5C80038E1020010E10200CCEC02002C4F002010
:10B5D800503700202E4F0020E0EC0200F0EC020073
:10B5E80020ED02002CED020038ED020058ED0200BB
:10B5F8006CED0200154A164BD31ADB081B0443F006
:10B60800040314491846FBF719FA019B9B88132178
:10B618001846FEF763FA0B900B9B0A930A9B002BC4
:10B628000FD00A98FBF738FD0BE000BF0AE000BF17
:10B6380008E000BF06E000BF04E000BF02E000BF72
:10B6480000E000BF00BF0EB010BD00BF38E102002F
:10B6580010E1020084ED020000B587B001F094FD0E
:10B668000590059B0493049B002B02D00498FBF7DC
:10B6780013FD0023019301AB1946012001F010FED0
:10B688000590059B0393039B002B02D00398FBF7BF
:10B6980003FD01AB184601F0D5FE0590059B02930A
:10B6A800029B002B02D00298FBF7F6FC00BF07B004
:10B6B8005DF804FB00B583B001900091009B1B88E6
:10B6C80040F6772293421FD1114A124BD31ADB0856
:10B6D8001B0443F0030310491846FBF7AFF9009B1E
:10B6E8009B88033B9AB20D4B1A80094A094BD31A1F
:10B6F800DB081B0443F00300084B1B881A46074B62
:10B708001B880749FBF7A8F900BF03B05DF804FBE5
:10B7180038E1020010E102009CED0200E83C002044
:10B72800B8ED020000B585B00E490F4800F0EEFEF6
:10B738000390039B0293029B002B02D00298FBF715
:10B74800ABFCF721084800F0FCFE0390039B019333
:10B75800019B002B02D00198FBF79EFC00BF05B0AF
:10B768005DF804FBBDB60200504E002000B585B060
:10B7780003468DF807309DF80730042B06D00A2BB6
:10B7880000D016E00020FCF739FC12E00B4B5B8878
:10B7980013211846FEF7A2F90390039B082B07D044
:10B7A800039B0293029B002B02D00298FBF774FCC8
:10B7B80000BF00BF05B05DF804FB00BF304E00209D
:10B7C80030B58DB0124B04AC1D460FCD0FC495E8B3
:10B7D800030084E803000F4B00934FF48073019338
:10B7E8000D4B02934FF480730393694604A8072313
:10B7F8000A4AFBF7E7FF0B900B9B0A930A9B002B67
:10B8080002D00A98FBF748FC00BF0DB030BD00BF5E
:10B81800E0ED02003C5000203C51002095AB0200B6
:10B8280000B585B000238DF80B3016E0134B00935C
:10B838009DF80B301B01124A13446A4611461846FC
:10B8480001F06AFB03909DF80B300E4AFF21D1549A
:10B858009DF80B3001338DF80B309DF80B30012B20
:10B86800E4D9039B0193019B002B02D00198FBF7BD
:10B8780013FC00BF05B05DF804FB00BF05AD020076
:10B88800304E00202C4F002000B585B00F49012014
:10B89800FEF714F80390039B0293029B002B02D03F
:10B8A8000298FBF7F9FB0DF1030319460020FEF798
:10B8B800F1F80390039B0193019B002B02D00198A0
:10B8C800FBF7EAFB00BF05B05DF804FB75B70200A3
:10B8D80000B587B0019020238DF80C3000238DF837
:10B8E8000D3003AB1846FFF7E7F9144B1B781B0123
:10B8F800134A134403A90222184601F0A5FB059038
:10B90800059B082B15D0059B132B12D0059B049380
:10B91800049B002B02D00498FBF7BEFB094A0A4B94
:10B92800D31ADB081B0443F0040308491846FBF745
:10B9380085F800BF07B05DF804FB00BF2F4F00205B
:10B94800304E002038E1020010E10200F8ED02005C
:10B9580000B583B001900C4B1B78002B0FD0012051
:10B96800FCF73CFD084B1B78013BDAB2064B1A701A
:10B97800064B064A4FF480511846FBF753FE00BFAA
:10B9880003B05DF804FB00BF404F0020FC4E0020D0
:10B9980000B585B0FBF704FE0390039B0293029B5E
:10B9A800002B02D00298FBF777FB104A00211048C1
:10B9B800FBF726FE0390039B0193019B002B02D00B
:10B9C8000198FBF769FB0B4A00210B48FBF718FEAF
:10B9D8000390039B0093009B002B02D00098FBF779
:10B9E8005BFB00BF05B05DF804FB00BFD9B80200DF
:10B9F800D8E8020059B90200DCE8020000B583B0BB
:10BA08004FF400410020FAF753FE0190019B009388
:10BA1800009B002B02D00098FBF73EFBFAF780FD55
:10BA280000BF03B05DF804FB00B583B0FCF7AAFAC9
:10BA38000190019B0093009B002B02D00098FBF71C
:10BA48002BFB00BF03B05DF804FB000000B583B01A
:10BA5800074800F037FB0190019B0093009B002BE7
:10BA680002D00098FBF718FB00BF03B05DF804FB99
:10BA7800A59C020008B5FAF775FE034683F001039A
:10BA8800DBB2002B01D0FCF793FA00BF08BD000021
:10BA980008B5FFF7B3FFFFF77BFFFFF791FEFFF74E
:10BAA800F3FEFFF7D3FFFFF7BFFFFFF7D5FDFFF763
:10BAB80039FEFFF7B5FEFEF7A5F8094801F05EFE6E
:10BAC800084A094BD31ADB081B0443F00303074950
