:020000022000DC
:106000000000012079630200616302006363020003
:10601000656302006763020069630200000000001C
:106020000000000000000000000000006B630200A0
:106030006D630200000000006F63020071630200E4
:10604000D587020073630200198C0200736302009B
:1060500073630200736302009D8A0200736302008F
:1060600073630200736302007363020073630200D0
:1060700073630200736302007363020073630200C0
:106080007363020081720200736302007363020093
:106090001D7302007363020011B8020073630200F3
:1060A0007363020073630200736302007363020090
:1060B0007363020073630200000000000000000030
:1060C0007363020073630200736302007363020070
:1060D0007363020073630200736302000000000038
:1060E00000000000000000000000000000000000B0
:1060F00000000000000000000000000000000000A0
:10610000000000000000000000000000000000008F
:10611000000000000000000000000000000000007F
:10612000000000000000000000000000000000006F
:10613000000000000000000000000000000000005F
:10614000000000000000000000000000000000004F
:10615000000000000000000000000000000000003F
:10616000000000000000000000000000000000002F
:10617000000000000000000000000000000000001F
:10618000000000000000000000000000000000000F
:1061900000000000000000000000000000000000FF
:1061A00000000000000000000000000000000000EF
:1061B00000000000000000000000000000000000DF
:1061C00000000000000000000000000000000000CF
:1061D00000000000000000000000000000000000BF
:1061E00000000000000000000000000000000000AF
:1061F000000000000000000000000000000000009F
:10620000364937480A1A02D0072291438D4635494C
:1062100035480A1A06D00722914381F309880222E1
:1062200082F3148831483249324A00F045F8324846
:106230003249334A00F040F832483349334A00F0DB
:106240003BF833483349344A00F036F83348344990
:10625000344A00F031F834483449354A00F02CF81B
:1062600034483549354A00F027F835483549002289
:1062700000F02DF834483549002200F028F8344861
:106280003449091A082903DB002202600430016046
:10629000314A90471F482049884205D0026804309F
:1062A00003B4904703BCF7E700208646EC46002085
:1062B00000212A4A9047FEE7884207D0521A05D0AB
:1062C000037801300B700131013AF9D170478842EF
:1062D00002D002700130FAE7704700000000012090
:1062E00000E000200000012000000120B8DD0200D5
:1062F000E0290020E82C0020D8630200D8630200C7
:1063000048C60200B8DD0200E0290020E029002094
:1063100038C7020038C7020038C7020038C7020079
:1063200038C7020038C7020038C7020038C7020069
:10633000B8DD0200C0E00200E82C0020E82C0020BC
:10634000E82C0020D4460020D4460020D44600206B
:10635000D4460020D4660020A1630200C5A102003B
:10636000FEE7FEE7FEE7FEE7FEE7FEE7FEE7FEE705
:10637000FEE7FEE7704700BF1048804710484FF027
:106380000701884385460F4880470F48016841F45C
:1063900070010160BFF34F8FBFF36F8FFFF730BF06
:1063A0000A480B490B4A884207D0521A05D0037895
:1063B00001300B700131013AF9D170477563020069
:1063C00000000120ED81020088ED00E038C70200E6
:0863D000E0290020E029002073
:1063D8007047000007B5054B0093054A4FF400636A
:1063E80000F037F803B05DF804FB00BFFD6302005E
:1063F800E92C00202DE9F0478A461446DAB1114B02
:10640800114E0425002743F0010822460AEB070134
:10641800002004F01DF80744241A70B9337853B1EA
:106428004FF004094FF47A40C047B9F10109F9D196
:10643800013D02D13570BDE8F08701233370002C8F
:10644800E3D1F8E740C70200E82C0020704704F0C9
:1064580033B8F0B595B01C46164608460D4601F00F
:1064680074FD1A9B0D93CDE9086400242346082285
:1064780005A928460A948DF82C400C9401F083FD58
:10648800079B0293BDF81830ADF80C30BDF81A30F0
:10649800ADF80E309DF814308DF8114003F003026A
:1064A800012A1DD1BDF81440059EC3F3C203C4F3ED
:1064B80083148DF81030A20008230EA9284601F095
:1064C80062FDC6F3952608AB0093224602AB0EA9DF
:1064D800304600F0F3FB284601F03BFD15B0F0BD57
:1064E800022AF8D1BDF81640C3F3C203A4098DF8F7
:1064F80010300827082C264628BF08263B46324677
:106508000EA9284601F03FFDA41B08AB02AA31469C
:106518000EA8374400F036FC002CEBD1DBE7000076
:1065280008B5FFF794FF0421034800F035FB034B3F
:1065380001225A7108BD00BF28C70200E0290020C7
:10654800037813F0040216D003F00303012B03D0E1
:10655800022B09D0012070470A6800880232C0F374
:10656800831002440A60F5E70B684288023303EBA4
:1065780092130B60EEE71046704700002DE9F04FCC
:1065880089B00546861C08A8484C019200230F468E
:1065980000F8113D01F0BCF923683B60D4E9012300
:1065A8001344226801339B1A04F21C4704F5836ADA
:1065B80004F21448B3421AD3019A0023002A6DD07A
:1065C800012262F3010343F0040365F38913216890
:1065D800A2689DF80F000A4003320E4444F82230A6
:1065E800266001F0B9F9012009B0BDE8F08F01215A
:1065F800384601F0E7F9504601F0FAF9404601F053
:10660800F7F90DF120096068D4F808B049F8100DC1
:1066180000EA0B00033004EB80004946FFF790FFC7
:10662800049BB0B90BEA030204EB8202D16805911E
:106638009A1C013303EA0B0B04EB8B0C01F00303E8
:10664800012B0492DCF80CB020D0022B04D0834636
:106658000BE00BEA0300DDE7BDF816309B090333B6
:106668004FEA1B4B02EB93030493404601F0C3F936
:1066780008B1049B63605946384601F0A3F9D4E990
:1066880001231344226801339B1A93E7BDF81430A1
:10669800C3F383134FEA1B4B1344E5E7022262F36B
:1066A800010343F0040365F39F5390E7BC350020D2
:1066B8000B4B0C48FF2210B59A600022C3F818242F
:1066C800C3E90022C3F8142483F8202401F0F6FB60
:1066D800044610B9044801F0FBFC204610BD00BF79
:1066E800BC350020CCC6020064C7020030B50A4C95
:1066F80071B10A4A0A49121BD20800239A4201D1F1
:10670800002030BD31F82350854202D00133F5E72F
:10671800034654F83300F4E754C60200CCC602001E
:10672800E0290020094B013903EBC000032909D8EF
:10673800DFE801F00A020406042070470079704778
:1067480040797047002070470220704754C6020005
:10675800034BD3E90030C31A58425841704700BF71
:10676800BC3500202DE9F04387B0FFF7F1FF06465E
:10677800002840F0FC807F4DC5F81804BFF34F8F08
:106788006868AC6806AF47F8100D2040033005EB89
:1067980080003946FFF7D4FE029B18B1D5F81824BB
:1067A800002A5FD004EA0302991C013305EB820238
:1067B800234005EB8303D268DB68049302F00303EC
:1067C800022B0392029162D1BDF80E306A484FEA5B
:1067D8009318B8F1500FC14628BF4FF0500969F31C
:1067E8008F1309F10801ADF80E3001F07FFB074661
:1067F800002800F0A78001F0A8FB03A900230822C5
:10680800384601F0B5FB029924EA01060136B600C4
:10681800B14535D95FFA89F97EB3F6B2A9EB060915
:10682800214003315FFA89F4B146544E05EB8101EA
:1068380008234A46384601F09BFB36B109F10803A4
:1068480022463146384601F093FB029B08F10308C3
:1068580003EB98030293D5F81834002B4BD1D5F8E5
:1068680010445BE02A689A4204D86A60304607B050
:10687800BDE8F08304EA030088E740493446D7E7D7
:106888002140033108234A4605EB8101DAE7012B51
:1068980058D1BDF80C303848C3F38311062928BFF6
:1068A800062161F3891302318900ADF80C3001F03B
:1068B8001DFB0746002845D001F047FB00230822AE
:1068C80003A9384601F054FB0026BDF80C20C2F39A
:1068D8008312B31C96424FEA8303BCD202994A1C26
:1068E80021400331029205EB81010422384601F070
:1068F8003FFB0136E9E7384601F02BFBFFF728FF9D
:1069080080F00100C6B2B1E7E3685B7923B1236880
:1069180039461B6820469847E3681C68002CF3D169
:10692800384601F016FB06A800F8114D00F0F0FFFC
:10693800D5F818340BB9029B6B609DF8070001F07D
:106948000BF8DBE7D5F8104454B90D4B0D480E4948
:10695800C01AC008000440F0020000F06FF8CDE74C
:10696800236820469B689847E3681C68ECE7002684
:106978007CE700BFBC350020CCC60200C83500202B
:1069880054C602007CC6020070C702002DE9F74F0A
:10699800284C80460F46924601A9012218469B467C
:1069A800D4F80890FFF7EAFD88B3019D0026A91CDA
:1069B8005E4506EB010234D100211F4800F0E2FFDA
:1069C80080F310006A1C02EA090204EB8202000448
:1069D80005EA0903033340EA1840D06014F823207D
:1069E80068F3C50204F8232034F8232066F38912DB
:1069F80024F8232054F82320012167F39F2244F828
:106A0800232061F301026FF3820204F8232094F833
:106A180020341BB1FFF7A6FE0028FBD103B0BDE868
:106A2800F08F09EA020204EB82025AF82630D3609A
:106A38000136BDE7BC350020D839002000231A46AE
:106A4800FFF7A4BF13B502AC012344F8042D224676
:106A5800FFF79CFF02B010BD07B5CDE90023022364
:106A68006A46FFF793FF03B05DF804FB1FB5CDE955
:106A78000123069B039301AA0323FFF787FF05B0B1
:106A88005DF804FB7FB5CDE90123089B0393099BBF
:106A980004930A9B059301AA0523FFF777FF07B024
:106AA8005DF804FB7FB5CDE90023089B0293099BA1
:106AB80003930A9B04930B9B05936A460623FFF7EF
:106AC80065FF07B05DF804FB2DE9F3478046304CBD
:106AD800D01C8A46174601A900228008A568FFF73E
:106AE8004DFD002840D0DDF80490A66809F10200A9
:106AF800019001362840361AB6000330B74204EB3D
:106B080080003BD83A46514605F052F90021214809
:106B180000F038FF80F3100009F101032B4004EB6B
:106B280083034FEA184242EA0040D86005EA0903A5
:106B3800033304EB830214F8231068F3C50104F847
:106B4800231034F823106FF38F1124F82310518881
:106B580067F38F11518014F82320022161F3010299
:106B68006FF3820204F8232094F820341BB1FFF756
:106B7800F9FD0028FBD102B0BDE8F0873246514646
:106B880005F016F9BA1B0AEB060104F10C00BBE785
:106B9800BC350020D839002030B50F49D1F8102471
:106BA800002314463CB9C468237152B9C1F81004D3
:106BB8002260184630BDE46825799D4206D02468D5
:106BC800F0E7D268116821601060F2E701330A2B00
:106BD800E7D14FF0FF33ECE7BC350020094A38B560
:106BE8000123D2F8104482F820341D4604B938BD78
:106BF800E3685D71236820465B689847E3681C6812
:106C0800F4E700BFBC350020037A052B10B50C460D
:106C18000FD0437A23B1084A0849204600F04CFFB8
:106C28000749204600F048FF2046BDE8104000F024
:106C380038BF002AF8D0F3E7BBC70200C0C702007C
:106C480065D10200C38873B504460D4633B1144AB2
:106C580000921449144A284600F02EFF217A05298B
:106C68001CD0637A4BB1A088FFF75CFD0F4B10492D
:106C780053F82020284600F01FFF227A0D4BA088E9
:106C880053F822600021FFF731FD0B4903463246D5
:106C9800284602B0BDE8704000F00EBF02B070BDDB
:106CA800BBC70200CBC70200C3C7020088C70200E7
:106CB800C0C70200F0C70200E3C702002DE9F04395
:106CC80085B01F460C9D002306460C46904695F855
:106CD8000C902B7329463846FFF7B4FFB8F1060F1E
:106CE80009D8DFE808F00412181F2833400031469D
:106CF800284600F0E1FE002229463846FFF784FFC7
:106D080085F80C9005B0BDE8F08322683146284626
:106D180000F0D2FEEFE7D4E900233146284600F020
:106D2800CBFEE8E7A36800933146D4E90023284660
:106D380000F0C2FEDFE7E3680193A36800933146E1
:106D4800D4E90023284600F0B7FED4E7236902936C
:106D5800E3680193A36800933146D4E900232846E9
:106D680000F0AAFEC7E76369039323690293E36807
:106D78000193A36800933146D4E90023284600F024
:106D88009BFEB8E708292DE9F84F80460E461746BE
:106D98001C463AD8002593F80C901D7319461046E6
:106DA800FFF750FFDFF884A0DFF884B0AE422ED999
:106DB80018F805205946204600F07EFE0135082DBA
:106DC800F4D11849DFF86CB0204600F075FE4FF09A
:106DD800000A564520D918F80A507E2D03D82846AF
:106DE80004F07AFF00B92E252A465946204600F0BD
:106DF80063FE0AF1010ABAF1080FEAD1012221461D
:106E08003846FFF701FF84F80C90BDE8F88F51462B
:106E1800204600F051FED1E70349204600F04CFE21
:106E2800E7E700BFB6C70200B4C70200B2C7020056
:106E3800ACC70200B8C702002DE9F04F3B4F89B03C
:106E480000263B4B1B78F5B2AB4202D809B0BDE82F
:106E5800F08F384B196811F835000124A0F1200291
:106E6800C0F1200304FA02F924FA03F349EA0309FA
:106E7800D7E9002304FA00F8CDE9042302EA08025E
:106E880003EA0903134301EBC50B4CD0DDE90423E6
:106E980022EA080223EA0903C7E90023079101F05F
:106EA800EFFD0799844611F83500A0F12002C0F1E2
:106EB800200324FA03F304FA02F21A4304FA00F353
:106EC80000931D4B0192DDE90045D3E900231440EE
:106ED8001D4022462B465FFA8CF40025CDE9044577
:106EE800049CA0F12005AC400394049CC0F120014F
:106EF80024FA01F1039C0C43049903948140029104
:106F0800DDE90245AB4208BFA2420CD19BF8011053
:106F18004B1E59425941A1EB0C02DBF80430514297
:106F2800514103B1984701368BE700BFA83A0020CA
:106F3800783A0020B03A0020A03A00202DE9F84F16
:106F48000646244800F0C2FB002841D10123A6F1DF
:106F58002001C6F1200203FA01FB23FA02F203FA28
:106F680006FA1D4BD3E900014BEA020B00EA0A08B6
:106F780001EA0B0958EA09021F4623D1304601F0FD
:106F88007FFD164BB8B1D3E9000140EA0A0441EA93
:106F98000B05C3E90045D7E900234BEA0305104B6D
:106FA8000C4819684AEA0204C7E900450022BDE80E
:106FB800F84F00F047BBD3E9000120EA0A0421EAB0
:106FC8000B05E6E720EA0A0421EA0B05C3E90045B8
:106FD800BDE8F88F803A0020A83A0020A03A0020A7
:106FE8007C3A0020042A2DE9F34105460C46164652
:106FF8003AD901F07DFCD8B11C4B1D491D601D4BD1
:10700800DFF884801C701C4B00221E600023C1E93D
:1070180000231A49C1E90023013CE4B200260327F2
:10702800FF2C0CD1164A1748002100F0F9FA03E0AA
:1070380001F028FC0028DFD002B0BDE8F08123B2BF
:1070480005EBC30201A992788DF8052015F83300E5
:107058008DF8066042468DF8047001F053FC013C3F
:10706800E4B20028DCD0E7E70720E5E7B03A0020E3
:10707800A03A0020783A00207C3A0020A83A002064
:10708800416E020048C80200456F020070B5084D05
:10709800084E00242B789C4201D3002070BD336831
:1070A800012113F8340001F0A5FC0134F2E700BF18
:1070B800783A0020B03A00201FB50021039001AAB9
:1070C80044F20100CDE9011100F004F805B05DF8C3
:1070D80004FB000010B572B6FFF780FDFFF742FB16
:1070E8000028FBD1104B114C1149E41AE408240480
:1070F80044F00100FFF7A2FC0E4B1B68DB0700D52C
:1071080000BE0D4944F00200FFF798FCBFF34F8F13
:107118000A490B4BCA6802F4E0621343CB60BFF321
:107128004F8F00BFFDE700BF54C602007CC60200B7
:107138004CC80200F0ED00E058C8020000ED00E085
:107148000400FA0549B152B1531E1A4007D18260B2
:1071580001608380C260104670470E207047092086
:10716800704710B58468C2688388121B934208D39D
:10717800C26813400268D154C3680133C360002059
:1071880010BD0420FCE78268C3689A420AD082686E
:10719800838813400268D35C0B7083680133836073
:1071A8000020704705207047094A537891780133C9
:1071B800DBB2994208BF0023117899421FBF0370C0
:1071C8005078182303FB002014BF043000207047B8
:1071D800B43A002073B5054602A8002400F8014D12
:1071E8000E4600F095FB0DF10600FFF7DDFF90B1AC
:1071F80006700A4B9DF8062045605A709DF80700F6
:1072080000F0AAFB24B9064B4FF48012C3F8002102
:10721800204602B070BD0424F0E700BFB43A002055
:1072280000E100E0024B4FF43C6043F001031847D3
:1072380070C8020038B50C4B0C4C4FF40032C3F840
:10724800802001254FF48033C4F84833C4F808334C
:107258006560FFF7E7FF064BA56000241C60FFF799
:10726800E1FF044B1C7038BD00E100E00010014054
:10727800D03B0020C13B0020F8B51F4B1F491B68BD
:107288000025C1F84051C1F84451C1F84851C1F82E
:107298004C51C1F80051C1F804514BB3D1F8044521
:1072A80017490968641A24F07F442F461A68A242D5
:1072B80009D8A41A15441A7CDE691AB11F74D3E9D7
:1072C80005209047AEB90F4B0F4A197813788B42B7
:1072D80005D10133DBB2022B08BF002313701278EB
:1072E8000A4B43F822500A4B4FF48012C3F800218E
:1072F800F8BD3346DAE700BFD43B00200010014058
:10730800D03B0020CC3B0020CD3B0020C43B0020DC
:1073180000E100E02DE9F74F9E4A9F49137809786C
:107328009E4D99423CD00133DBB2022B08BF0023AB
:1073380013709B4912789B4B0F6853F822003B1837
:1073480023F07F4300220B602B68164614469446B0
:1073580013B942B12B6006E0196881420ED902B117
:107368002B60091A19604FF001082B68DFF83CA25E
:1073780000930027BEB9DFF83CB260E0401A0C4425
:10738800D968C3F800C0D3F81CE031B13A1922F02B
:107398007F42C3E90121DE611E4601227346D7E719
:1073A8000026B046E1E73446F6697D4A636812680C
:1073B800DFF804C2A068991A21F07F41614500F204
:1073C800A58001442160012222742A680023C4E9AF
:1073D8000133E361002A40F0A2802C60CAE75A1CFE
:1073E8009BF80210D2B291428BF8002004BF002211
:1073F8008BF80020182202FB03B32A6819799C68CD
:10740800022974D003297ED0012918D1217CB1B971
:10741800DA6862601A69A2605A699B69A361624B63
:10742800E2601B78002BC0D06160BEE79C4200F090
:1074380093809946DB69002BF8D1002323749BF8CD
:1074480000309BF801209A42C9D12B682FB9009AC5
:10745800934202D1B8F1000F43D0002B79D0D3F872
:1074680000A0524D4E4BD5F804751C68DFF84C81CE
:107478003E1B98F8003026F07F4603369BB94FF440
:107488008033C5F84433C5F80433494B4FF4003210
:107498004FF00109C3F880211A60C5F80090FFF782
:1074A800C1FE88F80090B2452CBF5444A41924F0BA
:1074B8007F44C5F84045D5F80435DB1B23F07F43EE
:1074C800E41B033324F07F44A3420AD9D5F80435DA
:1074D800C5F84035FFF7A6FE354B4FF40032C3F828
:1074E8000021314B00221A7003B0BDE8F08F13461B
:1074F8009146A0E71174D2690123002AFAD1002B22
:107508009DD02A609BE700231946F6E7D31A23F09B
:107518007F43834234BFC31A0023236053E72168A3
:107528001368994213D8591A1160E26155E7091A8C
:10753800D8691A4638B1034618688842F7D3401A02
:107548001860184613462160E061DC6112E71346B3
:10755800F2E7FFF76FFEC4E74C450DD1D3692B6006
:1075680053B90F4801920121CAF8081003600E4B65
:107578001970FFF757FE019AE1692368C9F81C10D2
:1075880011B1086803440B602B689A4218BF0127A1
:1075980053E700BFCC3B0020CD3B0020D43B00206C
:1075A800D03B0020C43B0020C03B0020001001401D
:1075B80000E100E0B43A0020FEFF7F00C13B00205C
:1075C80008B5FFF737FE104B00200B2218809A7081
:1075D8000E4B18600E4B18700E4B18700E4B4FF474
:1075E8008012C021C3F8802183F814131A6002F1B5
:1075F8008042A2F56F22C2F8080583F81113074BE1
:10760800D2F804251A6008BDB43A0020D43B002003
:10761800CC3B0020CD3B002000E100E0D03B002027
:10762800074B9B784BB132B128B10368187C20B95D
:1076380059745A617047072070470820704700BF87
:10764800B43A00202DE9F7431D4FBB7805460E4696
:1076580090469BB390B304292ED9436973B3437CF6
:1076680002A80024012B00F8014D0CBF8946A14651
:1076780000F04EF90DF10600FFF796FDD0B1012399
:107688000370104B4560D3F80435C0E90498C0E98D
:1076980002369DF806307B709DF8070000F05CF913
:1076A80024B9094B4FF48012C3F80021204603B0D7
:1076B800BDE8F0830424EFE70724F7E70824F5E79B
:1076C800B43A00200010014000E100E0064A927838
:1076D8003AB130B1426922B1002202740221FFF7A7
:1076E80079BD0820704700BFB43A00200648074A11
:1076F80003780749D35C012213B1043001F0BEBE00
:107708000C3001F0A7BC00BFE82900203C3C002059
:10771800003C00200648074A03780749D35C012249
:1077280013B1043001F05ABE0C3001F03DBC00BF6B
:10773800E82900203C3C0020013C002037B50578B2
:10774800012D04D035D3022D28D003B030BD4368B5
:107758001F4C19782046FFF704FD78B11D4B0190A6
:107768008DF800501B6868469847A168E368A288AE
:107778005B1A9A420ED3FFF7B9FFE6E7A268E368FF
:107788009A42F2D002AB134A03F8080D1268184661
:107798009047EAE7104B01221A70D6E7C3680193B5
:1077A8008DF80050FFF7A2FF0A4B1B686846984700
:1077B800CBE70A490A48FFF7E6FC10B9FFF7AAFF2A
:1077C800C3E702A8032300F8083D024B1B68EEE755
:1077D800DC3B0020D83B0020EC3B0020013C002093
:1077E800F03B0020F0B51F46234B89B006461A60CF
:1077F8000C4600293DD08A8820480968FFF7A2FC7A
:10780800002834D1A289A1681D48FFF79BFC0028F5
:107818002DD11C4D0FCD6C460FC495E80F0084E8A0
:107828000F0073690693337C174A18488DF81C704B
:10783800003318BF01238DF81430737C002B14BF5C
:107848000E2300238DF81530F3680293B368039371
:107858003368019369467368009300F04DFF30B9AF
:107868000B4B18703368013301D0FFF73FFF09B0A5
:10787800F0BD0720FBE700BFD83B0020DC3B002021
:10788800F03B002078C8020045770200E829002074
:10789800EC3B002070B5084C014608482678FFF7F5
:1078A80072FC054636B100232370FFF71FFF08B1AD
:1078B800FFF702FC284670BDEC3B0020DC3B0020B3
:1078C80010B501460E48FFF74CFC0446A8B90D4810
:1078D8000D4A0378D35C63B1043001F0C3FD60B98D
:1078E8000A490748FFF74FFC38B9BDE81040FFF7D1
:1078F80011BF0C3001F0A2FBF1E7204610BD00BF1C
:10790800F03B0020E82900203C3C0020013C0020FE
:1079180070B5EFF3108672B60C4A946801239CB9CF
:1079280093600B4B0B4DD3F8801029401160C3F8BE
:107938008050D3F8841051604FF0FF32C3F8842090
:10794800047006B962B670BD0370FAE7043C002003
:1079580000E100E0FC06FFBD084B9A6810B55AB17B
:1079680050B9EFF3108172B6054A1C6814605C6860
:107978005460986001B962B610BD00BF043C002095
:1079880000E100E050E8002F0B4640E8003C9CF086
:10799800000FF7D11046704750E8003F43EA010254
:1079A80040E8002C9CF0000FF6D11046704750E8D4
:1079B800002F02EA010340E8003C9CF0000FF6D1DA
:1079C8001046704750E8003F03EB010240E8002CE6
:1079D8009CF0000FF6D11046704750E8003FA3EB2B
:1079E800010240E8002C9CF0000FF6D110467047C9
:1079F8000121FFF7D1BF0021FFF7D9BF10B590B122
:107A0800D0E9012301689B1ADBB20A60013BDBB2B3
:107A1800FF2B026802D10020107110BD11684C1CA8
:107A280014600B70F2E70E20F7E737B5054602A899
:107A3800002400F8014DFFF76BFF2A686B68116896
:107A480099420ED9481E106011F8014CEB68298A3A
:107A580001FB0434AB6811791B1ADBB2994238BFB9
:107A680013719DF80700FFF777FF204603B030BD7C
:107A780037B5054602A8002300F8013D0C46FFF77C
:107A880047FF2A681368591C1160E968641A298A33
:107A9800B4FBF1F41C709DF80700FFF75DFF03B01D
:107AA80030BD826810B504462AB14369016800698F
:107AB80098470023A36010BD0EB403B5039929B1FC
:107AC80002AA04AB42F8043D00F072F802B05DF877
:107AD80004EB03B070470A2938B504460D4602D1B5
:107AE8000D21FFF7F8FFA3682268591CA160D5543F
:107AF800D4E901329A4204D32046BDE83840FFF762
:107B0800D0BF38BD2DE9F84F9946DDE90A4317463D
:107B1800824688460A460126BA420FD24E4538BFE9
:107B28004E4613F0010B01D164B900240125B9F1C7
:107B3800010F1AD909F1FF397D43F8E7B2FBF7F2D3
:107B48000136E9E79B070ED5B9F1000F0CBF3025C8
:107B58002025A642EAD2013C29465046FFF7BBFF42
:107B6800002CF6D1E1E72025F3E7B8FBF5F39F42B7
:107B7800E2D9DFF83890B8FBF5F3504619F803104E
:107B880005FB1388FFF7A7FFB5FBF7F5002DF2D12A
:107B9800BBF1000F02D00CB1A64201D3BDE8F88FAB
:107BA80020215046013CFFF796FFF4E798C80200F1
:107BB8002DE9F74F054690460E46002900F03A8118
:107BC80016F8011B002958D0252940F0D18000273C
:107BD80002E047F001071646324612F8013B2D2B0A
:107BE800F7D0302B04D02B2B05D147F00407F2E750
:107BF80047F00207EFE700242A2B06F101021BD108
:107C0800D8F80030191D1B68C8F800101C44164627
:107C180033782E2B1CD101364FF0000A314611F86B
:107C2800012BA2F13000092814D80A2303FB0A23E8
:107C3800A3F1300A0E46F1E712F8013CA3F1300136
:107C48000929E5D80A2101FB0434303C1646D3E75C
:107C58004FF0000A324612F8011B01F0FB006828B9
:107C68001646F8D0692916D054D8582970D00ED89D
:107C780025297DD03378002BA2D12B7B002B00F057
:107C8800D980284603B0BDE8F04FFFF70ABF632943
:107C980068D06429EED1D8F80020D2F80090111DE0
:107CA80089EAE972C8F80010A2EBE9724FF0010BFB
:107CB800092A61DCD34538BFD3462CB1B9F1000F8E
:107CC80001DB790700D5013CBA0702D5BAF1000FEC
:107CD80004D0FB0702D4002C54D10024B9F1000FC2
:107CE80058DAC9F100092D212846FFF7F4FE07F0FC
:107CF8000302022A05D1BAF1000F02D1002C4DD19E
:107D08000024CDE9004753460A2249462846FFF792
:107D1800F9FEAFE7732954D016D87029AAD1D8F83C
:107D280000301A1DC8F80020302128461C68FFF7CB
:107D3800D2FE78212846FFF7CEFE00220823CDE99F
:107D4800003221461022E1E775292FD0782991D1F8
:107D5800D8F800100A1DC8F80020CDE9004753469E
:107D680010222CE0D8F800301A1D1978C8F8002025
:107D78002846FFF7B0FE7DE70A230BF1010B92FBC3
:107D8800F3F295E7A345A9D220212846013CFFF745
:107D9800A2FEA0E77807AAD52B21A5E7A345B0D274
:107DA80030212846013CFFF796FEA7E7D8F80010D7
:107DB800CDE900470A1DC8F8002053460A22096881
:107DC800A4E7D8F800301A1DC8F80020F907D3F83E
:107DD800009012D54F46A7EB090B17F8011B41B9C4
:107DE800A345BFF447AF20212846013CFFF773FEA7
:107DF800F6E72846FFF76FFEEDE7B9F1000F17D059
:107E0800484604F053F80746BC4200D954B909F172
:107E1800FF3919F8011F00293FF42CAF2846FFF756
:107E28005AFEF6E720212846013CFFF754FEEBE70F
:107E38004F46E9E703B0BDE8F08F2DE9F047B0F809
:107E480006904479D2F800A09DF8208009FB04F43C
:107E5800043C06460AEB0300A0420F4688BFA4EB89
:107E6800030A191DC2F800A0B1FBF9F509FB1511A9
:107E78004DB9A9EB0104544528BF5446BAF1000F87
:107E880004D1BDE8F0873668013DF1E704317B197C
:107E980070182246B8F1000F0ED001461846AAEB1A
:107EA800040A03F085FFD145254436684C464FF057
:107EB800000128BF5446E1E71946F0E7FFF79EBDE9
:107EC800F8B546790146721E0546002393422D688F
:107ED80003D30024A64202D8F8BD0133F6E70F68A1
:107EE8002846FFF7C5FD01343946F3E72DE9F84385
:107EF800068ACD1C0746FFF798FD043E3544044624
:107F0800B5FBF6F5F0B14FF48073EDB28380C6800F
:107F1800013D076081464FF00008A84512D2384657
:107F2800FFF783FD064648B163790133637108F1B1
:107F38000108C9F8000007608146EEE72046FFF710
:107F4800BFFF34462046BDE8F88301210430FFF71F
:107F580039BD10B5012104460430FFF73EFD10F08D
:107F6800FF0F04D12046BDE81040FFF7A9BF10BDA0
:107F78001FB504AC44F8042D002200922246FFF7F6
:107F88005CFF04B010BD1FB504AC44F8042D0122F9
:107F980000922246FFF751FF04B010BD33DF70474F
:107FA80041DF7047064B10B500241C70054B1C6060
:107FB800BFF35F8F0449054800F093F8204610BDD1
:107FC800193C00201C3C0020A8C80200103C0020DE
:107FD80007B502A8002300F8013DFFF799FCF1EE70
:107FE800103A23F09F03E1EE103ABFF35F8F0A4B7C
:107FF8004022C3F884219DF80700FFF7ADFC03F089
:10800800E9FB20B1FFF7CCFF03B05DF804FB20BF0C
:1080180040BF20BFF8E700BF00E100E070B5264C84
:10802800054601212046FFF7ADFCBFF35F8F2646CA
:1080380038B9042D0AD0214B1A781AB1BFF35F8FD3
:10804800206070BD1E4A157001221A701D4C1C4D0F
:108058006368BBB9FEF7C2FDFEF784FB0028FBD1BD
:10806800174B1B78023B012B14D8BFF34F8F1649CF
:10807800164BCA6802F4E0621343CB60BFF34F8F1C
:1080880000BFFDE71B682878984788B1204600F0B4
:1080980032F8DDE703F09EFB08B1FFF77FFF4FF0F2
:1080A80080430122C3F80025BFF34F8F20BFFDE7AF
:1080B800BFF35F8F3060C4E71C3C0020193C0020F0
:1080C800183C0020103C002000ED00E00400FA05F8
:1080D800836800225A609A60C3E90422DA601A6051
:1080E80070470B684A684360934208BF00230160E9
:1080F80008BF43607047436843B10268916852689B
:108108000B449342436004BF002343607047000060
:108118000D4930B5A1F594720225914201D800208D
:108128000EE08B1ADB1093FBF5F302EBC30452F855
:108138003330834205D802D204F10802EDE76068C3
:1081480030BD2146E9E700BFF8C9020008B5FFF7CE
:10815800DFFF024B002808BF184608BDBDC8020053
:1081680010B50446C0B2FFF7ABFB204610BD0000B7
:108178000C4B1B78062B10D10B4B1B681A070CD124
:108188000A4B186800F0F003302B08D000F0E0002C
:10819800A0F1400358425841704700207047012021
:1081A800704700BFE00F00F0E40F00F0E80F00F0A8
:1081B800094B1B78062B0CD1084B1B681A0708D1F2
:1081C800074B186800F0F000A0F1300358425841FE
:1081D80070470020704700BFE00F00F0E40F00F088
:1081E800E80F00F008B5FFF7C3FF28B17D4B7E4AC2
:1081F8001B68C3F304231360FFF7DAFF10B17B4B4E
:108208007B4A1A60FFF7B4FF28B17A4B7A4A1B6899
:10821800C3F342331360FFF7CBFF20B1774AD3682B
:1082280023F08073D360FFF7A3FF40B14FF0804382
:108238000022C3F80C21C3F81021C3F83825FFF732
:10824800B7FF10B16E4B03221A60FFF7B1FF40B1C0
:108258006C4B05221A6001229A6700229A603F221D
:108268005A60694B1B78062B50D1684B1B6819075D
:108278004CD1674B1B6803F0F003502B46D14FF0ED
:108288008052644BD2F80414C3F82015D2F80814AD
:10829800C3F82415D2F80C14C3F82815D2F8101412
:1082A800C3F82C15D2F81414C3F83015D2F81814E2
:1082B800C3F83415D2F81C14C3F84015D2F82014AA
:1082C800C3F84415D2F82414C3F84815D2F8281472
:1082D800C3F84C15D2F82C14C3F85015D2F8301442
:1082E800C3F85415D2F83414C3F86015D2F838140A
:1082F800C3F86415D2F83C14C3F86815D2F84014D2
:10830800C3F86C15D2F84424C3F87025FFF730FF82
:1083180028B1414B414A1B6803F04F031360FFF734
:1083280027FF48B14FF08043D3F80024D20744BF59
:108338006FF00102C3F80024394B1B68062B08D1E3
:10834800384B1B68062B01BF374A136843F4806318
:108358001360364AD2F8883043F47003C2F8883084
:10836800BFF34F8FBFF36F8F4FF01023D3F8002266
:10837800002A03DBD3F80432002B2FDA2C4B01221E
:10838800C3F80425D3F80024002AFBD04FF01022AC
:108398001521C2F80012D3F80024002AFBD04FF0B0
:1083A80010231522C3F80422214B1A46D3F80014CF
:1083B8000029FBD00021C3F80415D2F80034002BA3
:1083C800FBD0BFF34F8F19491A4BCA6802F4E06219
:1083D8001343CB60BFF34F8F00BFFDE7164B174A1F
:1083E8001A6008BD240300104035014074C00740DE
:1083F8000DF0ADBA440200103C050040F0ED00E07D
:10840800A005004010560040E00F00F0E40F00F017
:10841800E80F00F000C0004058020010E40E0040D1
:1084280030010010340100103C17004000ED00E05E
:1084380000E001400400FA05FC2900200090D00368
:10844800054A4FF0A043105CD3F8043523FA00F036
:10845800C04300F001007047B6CD0200044B1A5C1F
:10846800012393404FF0A042C2F80C35704700BF7B
:10847800B6CD0200044B1A5C012393404FF0A04292
:10848800C2F80835704700BFB6CD020008B5002015
:10849800FFF7F0FF0120FFF7EDFF0220FFF7EAFFEB
:1084A8000320BDE80840FFF7E5BF08B50020FFF747
:1084B800D5FF0120FFF7D2FF0220FFF7CFFF0320EF
:1084C800BDE80840FFF7CABF074A4FF0A041105C5B
:1084D800D1F804350122824022EA03001340C1F892
:1084E8000805C1F80C357047B6CD0200054A4FF0B3
:1084F800A043105CD3F8103523FA00F0C04300F015
:1085080001007047B2CD02000D2809D00E2809D00D
:108518000F2809D010280CBF03204FF0FF307047F8
:10852800002070470120704702207047014B185CFB
:10853800704700BFB2CD0200C20708B501460CD58E
:108548004FF0A0430322C3F84427C3F84827C3F8D1
:108558004C27C3F85027FFF799FF8B070AD54FF030
:10856800A0430C22C3F83427C3F83827C3F83C27A4
:10857800C3F8402708BD000038B5084C04F10803CB
:108588000546002818BF1C4623682BB11A682260CC
:108598005B6828469847F7E738BD00BF283C0020AD
:1085A80020B9054B01225A70FFF7E6BF012802D116
:1085B800014A9070F8E77047203C002020B9034B2F
:1085C80001225A70FFF7D8BF704700BF203C002037
:1085D80038B50B4C237883B90A486360A3602361DC
:1085E800E36000F0C7F8054603F0F4F808B900F0B6
:1085F800CFF801232370284638BD8525FBE700BF47
:10860800203C0020A985020037B502A80023094CA8
:1086180000F8013DFFF77CF9E368013BE360E5689A
:1086280015B900F0C7F8A5709DF80700FFF794F991
:1086380003B030BD203C0020012813B509D003D376
:1086480003281BD002B010BD0F4B0122C3F88020B5
:10865800F8E702A800230D4C00F8013DFFF758F990
:1086680023780BB9FFF7B4FFE3689DF807000133DF
:10867800E3600123A370FFF76FF9E3E700F088F8E0
:10868800FFF7C2FFDEE700BF00E100E0203C00206A
:108698001FB503788DF800304368019383688DF81F
:1086A8000830C3680393054A054B684653F82130E0
:1086B80052F82110984705B05DF804FB343C0020BF
:1086C800383C00201FB503788DF8003043680193CB
:1086D80083688DF80830C3680393054A054B6846DC
:1086E80053F8213052F82110984705B05DF804FB83
:1086F800343C0020383C0020F0B5194B067891F83E
:108708001DE043F82620174B94460A6943F82620B3
:10871800154B03F806E00C4607460FCC89B06D46AA
:108728000FC594E80F0085E80F000496BEF1000F0E
:108738000AD0BCF1000F0D4A694608BF0022381D57
:1087480000F08AFD09B0F0BDBCF1000F084A694687
:1087580008BF002207F10C0000F06CFBF2E700BF35
:10876800383C0020343C00203C3C00209986020024
:10877800CD860200054A13792BB9012110601171C9
:108788005371184670478520704700BF403C002051
:10879800074B1A68D2075FBFC02283F80023012263
:1087A8001A604FF080430122C3F81825704700BFB4
:1087B80000E100E0044B01221A604FF08042D2F839
:1087C8001834DB03FBD470470C000040154B07B589
:1087D8001A687AB100221A601B680093009B4FF058
:1087E80080430122C3F808230F4B587910B95A71F6
:1087F8001B6898470D4B1A6882B100221A601B68E3
:108808000193019B4FF080430222C3F80823064BD3
:108818001B68012003B05DF804EB184703B05DF84E
:1088280004FB00BF00010040403C00200401004060
:1088380000F1804000F5C040002382B00360036867
:108848000193019B02B07047800000F1A040D0F86E
:10885800003723F44033C0F80037D0F8003743EA34
:108868000141C0F800177047054B4FF0FF32072849
:1088780043F8202084BF1B1883F84820704700BFA6
:10888800483C002010B5164C94F8583033BBFF21F3
:10889800E2180133202B82F83010F9D10021C8B238
:1088A800FFF7E2FF01310C29F9D1042200210D481C
:1088B80003F0A7FA0C4BC02283F8062340221A6063
:1088C8004FF4BE70FFF7B4FF084B4FF00042C3F8F7
:1088D8000423012384F85830002010BD0820FCE749
:1088E800483C00209C3C002000E100E00060004083
:1088F800034B93F85800003018BF0120704700BFA1
:10890800483C0020F0B5394D2C18944694F9304075
:10891800002C68DA8E78C6F34006002E15BF0023B7
:10892800082308270C27BB4201D10420F0BD55F8C5
:10893800232001324FEA830441D12F1845F823C080
:1089480087F8303016B9EA1882F848008A7856074E
:1089580016D4D70735D5820002F1A042D2F80067B5
:1089680026F00206C2F80067214FC60800F0070C7F
:10897800012202FA0CF217F806C042EA0C02BA55B4
:108988008A780E7812F0020224D004F1804303F5AD
:10899800C0430002D3F8102522F4473222F4407273
:1089A800C3F810253604D3F8102500F4F85006F45F
:1089B800403630431043C3F810050020B6E70133B2
:1089C800B1E74E7800F5E0724FF0A047B60047F8DF
:1089D8002260C9E7083B2B4493F8500040EA86160A
:1089E80083F85060E9E70820A0E700BF483C002072
:1089F8009C3C002038B5204C251895F93020072AD2
:108A080018DD224492F848309B09032B0DD14FF012
:108A1800A043D3F81035C34013F0010F0CBF022157
:108A28000321BDE83840FFF70FBF012B14BF032116
:108A38000221F6E7D3B2072B1CD8930003F1804339
:108A480003F5C043D3F8100540F00100C3F8100542
:108A580002F14000800080B2FFF7EAFE51B195F9BB
:108A6800303054F823302BB1012303FA02F2034BC0
:108A7800C3F8042338BD00BF483C00200060004014
:108A88004FF0A043D3F8103523FA00F000F00100AE
:108A9800704700002DE9FF470024584A584E594DA9
:108AA800019401211368A2F5C040012B80B206D1C0
:108AB800D6F804330B4202D0FFF7BAFE0C43043257
:108AC800AA424FEA4101EDD14F4B1B68012B0AD155
:108AD8004FF4BE70FFF7ACFE4FF0A04344F00044E3
:108AE800D3F81035019314F0FF0F1AD0474F002523
:108AF8000126344210D0AB0003F1804303F5C04394
:108B0800D3F81005D3F8101557F82530C0F3042012
:108B1800C1F3014103B198470135082D4FEA4606D4
:108B2800E7D1002C66DA00224FF0FF33CDE90223AB
:108B3800DFF8D8900127002634464FF0A04809EB0B
:108B4800060393F95020531C45D0D2B222F0C00539
:108B5800E90804A8084402F0070310F804CC07FA4F
:108B680003F31CEA030F36D009EB050C92099CF9B4
:108B780030C059F82CA0BAF1000F0AD1032A2AD123
:108B88000DF1080E1EF801C04CEA030C0EF801C0E6
:108B980001E0032AF4D005F5E07110F80C0C58F840
:108BA80021101842C1F3014105D0022913D1032A2B
:108BB8000BD1114604E003290DD1032A05D1022166
:108BC8002846FFF741FE0134E4B2BAF1000F02D0A3
:108BD80011462846D0470136042EB0D154B14FF083
:108BE800A043019AD3F81035934203D00193029B16
:108BF8000393A0E704B0BDE8F08700BF0061004020
:108C080000600040206100407C610040483C00203A
:108C1800014B1B68184700BFA43C00200D4B98422D
:108C280037B50D4610D102A8002300F8013DFEF724
:108C38006FFE094B1C7914B901221D601A719DF849
:108C48000700FEF789FE14B9002003B030BD1120DB
:108C5800FBE700BF00200040A43C00200023435055
:108C680082B043580193019B02B070470A4610B581
:108C78004FF48E71FFF7F2FF136A9168C95C136AAB
:108C880001331362C0F81C1510BD024608B54FF435
:108C980092710068FFF7E2FF4FF484711068FFF7E4
:108CA800DDFF136801221A6008BD8B690A4610B5FA
:108CB8004FF4847123B9FFF7D1FFD0F8183510BDF0
:108CC800FFF7CCFF536AD168D0F81805C854536A27
:108CD80001335362F3E700001FB501238DF800301C
:108CE800044BCDE90110D3E900126846904705B05E
:108CF8005DF804FBAC3C002030B54C4AD2F8043394
:108D080013F4007F85B015464FD0D2F82431002BDC
:108D18004BD04FF492711046FFF7A0FF4FF4017348
:108D2800C2F80833424B93F8291009B90121516060
:108D38003E4902228DF80020D1F88024C1F8802411
:108D480003929A690292DA6801920022C3E9062224
:108D58006846D3E9001290473448D0F81C315BB11B
:108D680033490A6A4B699A420A464BD291F828302D
:108D7800002B47D1FFF77AFF2C4AD2F8443193B140
:108D88004FF4A2711046FFF769FF294B93F8291099
:108D980009B1012111609A692AB100229A61586AC1
:108DA800D968FFF799FF05B030BDD5F804335B07E4
:108DB800D2D5D5F80831002BCED01D4C1B48214602
:108DC800FFF773FF636AA2699A422346C4D1E26936
:108DD800E1684AB12369E3600023606AA261E36144
:108DE8006362FFF779FFB7E794F829200AB90122EF
:108DF8006A600E4A4FF40170C2F8080300229A61B3
:108E0800586AEEE74FF48E710848FFF727FF51695B
:108E18000029B1D00023029191688DF800300191AA
:108E280053616846D2E900139847A5E7002000403F
:108E3800AC3C00202DE9F843564F047991462C228A
:108E480002FB0472064692F82A200D46002A40F0DA
:108E58009A8051490068FFF7E1FE8046002840F0FB
:108E6800958029683368481C0BD04FF0A040012238
:108E78008A40C0F8082501F5E0724FF0030C40F86D
:108E880022C06868421C1FBF00F5E0724FF0A04C7A
:108E98004FF0000E4CF822E0AA6995F814C0C3F808
:108EA80024256A7DBCF1010F4CEA0202C3F86C2547
:108EB800C3F81405C3F80C151DD1AA68511C1FBFAF
:108EC80002F5E0714FF0A0404FF0000C40F821C0CF
:108ED800E968481C0BD04FF0A04C01208840CCF822
:108EE800080501F5E0704FF0030E4CF820E0C3F8D8
:108EF8000815C3F810252C236343FA18C2F8049008
:108F08002A69FA50B9F1000F2AD04FF48E713068EF
:108F18002D7FFFF7A3FE30684FF4A271FFF79EFE86
:108F280032681E4BC2F80433120B51B20029A8BF95
:108F380001F160404FEA4513BABF194802F00F0526
:108F480000F56140DBB2B4BF435580F8003302F04E
:108F58001F02012303FA02F24909124B43F82120A8
:108F680033680422C3F800252C2303FB0473002272
:108F7800C3E9062283F829205A61012283F82A20AE
:108F88004046BDE8F8834FF00808F9E74FF01108AC
:108F9800F6E700BFAC3C0020018D02008000020013
:108FA80014ED00E000E100E02DE9F843224F0679D6
:108FB8004FF02C0909FB067480466569002D37D1EE
:108FC8006261A16025624FF48E71006884F82850B0
:108FD800FFF744FED8F80000012383602146FFF71D
:108FE80045FE6368A1462BBBD8F80050226A636926
:108FF8009A4212D3D8F80030D3F81C21002AFBD0AB
:109008000122DA6000202C2303FB0676002373611B
:10901800BDE8F88394F8283043B9D5F81C31002B03
:10902800F8D049462846FFF721FEDFE70F20EAE798
:109038001120EDE72846EBE7AC3C00200379044A11
:109048002C2101FB03235869003018BF0120704709
:10905800AC3C00202DE9F843384E05792C2303FB5E
:10906800056307465C6824B103684FF40170C3F8D0
:1090780008032C2303FB0563986950B1D8690028BD
:109088003ED024B13B684FF40172C3F80423112089
:1090980034E09A61D9605862D8612C2303FB0563D8
:1090A80093F829301BB910B93846FFF7EEFD4FF099
:1090B8002C0909FB05683868D8F80430002B34D12E
:1090C8004FF4A271FFF7CAFDC1463868D0F82431C1
:1090D800D0F80821D0F84441B2B90CB9002BF4D02B
:1090E8002C2202FB05650022AA611BBB24BB95F854
:1090F80029103B680122B1B11A600020BDE8F8834D
:109108001961DA610120C8E7002BE9D1002CE7D109
:109118004946FFF7CAFDD8F82430D8F818209A42F3
:10912800D3D82346DCE75A60E7E74FF40173C0F869
:109138000433E2E70320E1E70F20DFE7AC3C00203F
:109148000023435082B043580193019B02B07047FB
:109158001FB501238DF80030044BCDE90110D3E988
:1091680000126846904705B05DF804FBD83C002023
:109178007FB5374AD2F82461002E48D010464FF404
:109188009271FFF7DDFF02238DF80030D2F88034AA
:10919800C2F880340393D2F83C3502932D4BDA6839
:1091A80001920022C3E906226846D3E900129047DB
:1091B800274AD2F844317BB14FF4A2711046FFF729
:1091C800BFFF244B996939B10021C3E90611D96859
:1091D800D2F83C05FFF7BCFF1D4AD2F82031A3B1F5
:1091E8004FF490711046FFF7ABFF1A4B596961B104
:1091F800D2F84C150291002299688DF8002001914F
:109208005A616846D3E90012904704B070BDD2F89D
:109218001031002BCCD04FF488711046FFF790FF27
:109228000C4BD2F83C0599698842C1D1DC69D968F0
:1092380064B1D2F8005225F02005C2F800521A692C
:109248009C61DA60DE61FFF783FFB1E79C61FAE7B2
:1092580000200040D83C00202DE9F8435A4F0679F9
:109268009146242202FB0672044692F820200D46FD
:10927800002A40F0A28055490068FFF7CFFC8046DD
:10928800002840F09D8029682368481C0BD04FF0C7
:10929800A04001228A40C0F8082501F5E0724FF08D
:1092A800030C40F822C06868421C1FBF00F5E0723A
:1092B8004FF0A04C4FF0000E4CF822E0AA6995F848
:1092C80014C0C3F824256A7DBCF1010F4CEA0202E0
:1092D800C3F86C25C3F80C15C3F814051DD1AA688A
:1092E800511C1FBF02F5E0714FF0A0404FF0000C79
:1092F80040F821C0E968481C0BD04FF0A04C012071
:109308008840CCF8080501F5E0704FF0030E4CF8E2
:1093180020E0C3F80815C3F8102524237343FA186E
:10932800C2F804902A69FA50B9F1000F34D04FF40A
:10933800887120682D7FFFF703FF4FF49071206834
:10934800FFF7FEFE4FF492712068FFF7F9FE2068E0
:109358004FF4A271FFF7F4FE22681D4BC2F80433E4
:10936800120B51B20029A8BF01F160404FEA451322
:10937800BABF184802F00F0500F56140DBB2B4BF70
:10938800435580F8003302F01F02012303FA02F26A
:109398004909114B43F8212023680822C3F8002506
:1093A800242303FB06730022C3E906225A61012223
:1093B80083F820204046BDE8F8834FF00808F9E715
:1093C8004FF01108F6E700BFD83C00207991020061
:1093D8001003020014ED00E000E100E001F060433A
:1093E800B3F1005F2DE9F041074632D11C4B0679F5
:1093F800242505FB063598466C6964BB6A61A9603B
:1094080000684FF49071FFF79BFE4FF4AC71386819
:10941800FFF796FE3B686A69A968C3F84415C3F864
:10942800482501229A606A68BAB9D3F82011D3F89E
:10943800582149B9002AF8D00F20242303FB0686B7
:1094480000237361BDE8F081002A14BF0F200020BB
:10945800F3E71020F6E71120F4E72046F2E700BF13
:10946800D83C00200379044A242101FB03235869CE
:10947800003018BF01207047D83C0020F8B501F033
:109488006043B3F1005F04460F465ED10379304D67
:10949800242101FB0351486820B121684FF4047668
:1094A800C1F80863242101FB03539E6956B1D969A9
:1094B800002939D020B123684FF40472C3F804237B
:1094C800112030E09A61DF60DE614FF48871206816
:1094D800FFF736FE4FF4A2712068FFF731FE2368CC
:1094E800C3F83475C3F8382516BB01221A602279EF
:1094F800242101FB0251496809BBD3F81041D3F874
:109508004411D3F8240114B909B90028F5D024234B
:1095180003FB02550023984214BF032018469942C2
:10952800AB6118BF0F20F8BD1F61DA610126CCE7D7
:10953800D3F8002242F02002C3F80022D7E74FF404
:109548000472C3F804230020EDE71020EBE700BF06
:10955800D83C00200220FEF7B7BF00002DE9F047F5
:1095680081460D46FEF7D0FF0328044604D8012D96
:1095780004D024D3022D2FD0BDE8F087194D470021
:109588003A18A918AE5C4A7852B1DFF868801648D4
:1095980042464FF40041FEF755F808B988F80090A4
:1095A8003B192B449A78114B1A55002EE4D0104BD6
:1095B8001B68002BE0D03046BDE8F04718470A4842
:1095C800FEF784F8074B04EB440213449E78074BDC
:1095D8001B5DB342D0D1E8E7024B00EB40041C44CA
:1095E8006678E2E7603D0020203D0020793D0020BC
:1095F800743D0020FC3C002002210078FFF7AEBF3C
:1096080008B5094B1B7853B10020FEF733FF012042
:10961800FEF730FF0320BDE80840FEF72BBFBDE88A
:109628000840FEF733BF00BFFD3C0020F8B57B4C77
:10963800237805461BB100232370FFF7E1FF172DA0
:1096480000F28880DFE805F00C1717435465768030
:10965800888D888D959A9A9A9A9AC4C9D1D9E4E442
:10966800FFF7CEFF6E48FEF731F86E4B0022044636
:109678001A702046F8BD0020FEF7E2FEF8B100207F
:10968800FEF7F8FE022D0CBF4FF4E1614FF47A614A
:10969800644B1D704FF400404FF4FA740025E0FB52
:1096A80001454FF47A7200232046294602F01EFA3B
:1096B800002201465A48BDE8F840FDF7C3BFFEF74F
:1096C800CDFE022D0CBFC8214FF4C871E0E7002081
:1096D800FEF7B6FE40B10020FEF7CCFE4FF448710D
:1096E800504B03221A70D5E7FEF7B8FEC821F7E7FA
:1096F8000020FEF7A5FE38B10020FEF7BBFE4FF4B0
:109708007A61484B0422EDE7FEF7A8FE4FF4C871D2
:10971800F7E70020FEF794FE48B10020FEF7AAFE06
:10972800404B05221A7041F69A110022C2E7FEF753
:1097380095FEF5E70020FEF7C7FE3A4B06221A70A1
:10974800002240F6CD41B5E70020FEF787FE354BF5
:1097580007221A7000248CE701202070FEF7B4FE5F
:10976800EEE701202070FEF7AFFE00224FF48041A3
:10977800A0E7FEF79AFE2B4B0C22EAE72A482B4E6D
:10978800FDF7A4FFD5F1110504461CD0D8B9012D69
:1097980013D0C8235D434FF400474FF4FA700021FB
:1097A8004FF47A720023C7FB050102F09FF92246A5
:1097B80001461D48FDF746FF04460220FEF74EFE0F
:1097C8000123337055E70220FEF754FE0023F8E723
:1097D800FFF716FF134B1222BBE7FFF711FF00201C
:1097E800FEF73CFE0F4B1322B3E7FFF709FF0120FA
:1097F800FEF734FE0B4B1422ABE7FFF701FF002006
:10980800FEF72CFE0120FEF729FE064B1522A0E7E5
:10981800FEF74BFE034B1D709CE700BF703D002018
:10982800403D0020783D0020003D0020FD3C002008
:10983800044B1B68DB0703D5034B1878FFF7F6BE0C
:10984800704700BF6C3D0020783D0020032801D8F8
:10985800FEF74CBE00207047044B1B6813F0010351
:1098680001D0FFF7E3BE1846704700BF6C3D0020EB
:1098780038B51C4B18601C4B10F0020405461960E3
:109888001AD01A4B1A480E221A700F22DA701022B8
:109898009A7111225A72042140F26662FDF7A2FB06
:1098A800044648B9FDF7F2FB044628B90146114AB7
:1098B8001148FDF7B5FE0446EB0711D50120FEF768
:1098C8003BFE6CB921460D4A0D48FDF7A9FE04463A
:1098D80030B90C4A0C480121BDE83840FDF7A0BE5C
:1098E800204638BD6C3D0020743D0020603D0020BE
:1098F800DCCD02000196020000CE02003998020079
:1099080004CE02005D950200FCCD0200032812D8A7
:10991800012A0BD1012908D100F10E02D2B200EBC5
:1099280040000C4B1A540020704700220129F6D041
:1099380009D3022901D007207047064B00EB4000ED
:1099480018444270EFE7034B00EB40001844827064
:10995800E9E700BF603D0020032808B512D8FEF7EC
:10996800E5FD800000F1A040D0F8003723F4403333
:10997800C0F80037D0F8003743F44033C0F8003758
:10998800002008BD0620FCE708B5012202210020BE
:10999800FFF7BCFF08B1072810D1072202210120D8
:1099A800FFF7B4FF08B1072808D100210A220846AA
:1099B800FFF7ACFF10B1072808BF002008BD000062
:1099C8000388102B10B502D0112B1ED010BD1A4CD5
:1099D8002168B1B901220846FFF798FF08B10728A6
:1099E80024D1072202210120FFF790FF08B10728A0
:1099F8001CD1042202210020FFF788FF08B10728A4
:109A080014D1236801332360E0E70B4A1368013B54
:109A18001360002BDAD1FFF7B7FF0028D6D0074B29
:109A28001B68002BD2D0BDE810401847034B1B68B9
:109A3800002BE6D09847E4E7843D0020803D0020D5
:109A480008B50020FFF788FF08B1062806D10120D5
:109A5800FFF782FF10B1062808BF002008BD0000EC
:109A68000D4B10B518600C4629B10120FFF7EEFE2A
:109A780040B102232370094B1B6853B9BDE810405D
:109A8800FFF782BFFFF7E2FE08B10B23F2E7207071
:109A9800F1E7002010BD00BF803D0020843D00207C
:109AA80075DF704776DF70477FDF70478FDF70475D
:109AB8000146014801F0F2BC803E002003881B2BC0
:109AC80013B504463BD01BD8112B2BD0132B44D0F5
:109AD800102B1AD181883848002201F0E7FD08B11F
:109AE800FDF7EAFA0720FFF7B7FE08B1FDF7E4FA39
:109AF800A188324800F028FF38B1FDF7DDFA04E00C
:109B0800212B37D003D81F2B2ED002B010BD3B2BF2
:109B180042D0562BF9D12A482A4B2B49C01AC008E3
:109B280000043FE0274B2648A2882849C01AC008ED
:109B38000004237A40F00300FCF78EFFE5E7037A80
:109B4800022BE2D11F4B1E482149C01AC00800044D
:109B580040F00300FCF772FFD7E700231A4685217F
:109B68008088FFF7A1FFC7E700F108018088FFF7A9
:109B780097FFC1E7134B12481649C01AC0080004E2
:109B880040F00400FCF75AFF02A9002321F8043D25
:109B9800A088FFF78BFFAFE709480A4B0E49C01AA8
:109BA800C008000440F00400FCF748FF1321A08817
:109BB800FFF778FFA0E700BF803E0020022A0020C0
:109BC8007CC6020054C6020095CE020020CE0200D8
:109BD8004ECE02006CCE020080CE020008B50748C7
:109BE80001F028FB08B1FDF767FA0120FFF734FE02
:109BF80018B1BDE80840FDF75FBA08BDCC3E0020AB
:109C08000378012B70B5044647D002D3022B35D018
:109C180070BD254C254D20882844FDF73BFE238840
:109C280001339BB21D44238015F8012C0A2A2546CE
:109C380003D01F4A12889A42EAD81E4B1E4C1F496D
:109C48001F4EE41AE408240444F004042046FCF7F8
:109C5800F5FE20462A881549144CFCF735FF2A885A
:109C68002146304601F0E4FC082804D01328F6D039
:109C780008B1FDF721FA00232B80C9E70E480D4BE8
:109C88001049C01AC008000440F00100FCF7D6FED5
:109C98006068BDE87040FDF70FBA0748054B0A49F0
:109CA800C01AC0080004EFE77C3E0020883D002071
:109CB800002A002054C602007CC60200C8D1020057
:109CC800803E0020E8D102001AD2020010B50446F6
:109CD8000020FFF7C1FD08B1FDF7EEF924B9FFF741
:109CE800AFFE08B1FDF7E8F9012010BD0A8840F67B
:109CF80077239A4270B50D4616D10C4B0C4C0D4982
:109D0800E41AE408240444F003042046FCF796FE11
:109D1800AB88094A0949033B9BB2138020461A467F
:109D2800BDE87040FCF798BE70BD00BF54C6020085
:109D38007CC60200F7D00200002A002013D10200DE
:109D4800042808B506D00A2810D10020BDE808402C
:109D5800FEF764B9064B13215888FFF7A3FE30F0CD
:109D6800080303D0BDE80840FDF7A6B908BD00BF49
:109D7800803E00202DE9F04F0B78012B85B0064678
:109D88000D4625D005D3022B00F04D8105B0BDE866
:109D9800F08FAC4BAC4CAD49E41AE408240444F011
:109DA80003042046FCF74AFE05F10E026988304696
:109DB80001F07CFC054620B1FDF77EF92846FDF749
:109DC8007BF9A349204605B0BDE8F04FFCF736BE45
:109DD8009C4B9D4C8E689F49E41AE408240444F087
:109DE80004042046FCF72AFE337803F0F002802AA8
:109DF800CCD103F00303022B00F0DC80032B00F02E
:109E0800FF80012B00F0AF8093492046FCF716FE37
:109E18009249DFF89492DFF894A2DFF894B22046D2
:109E2800FCF70CFE8E492046FCF708FE8D492046BB
:109E3800FCF704FE8C492046FCF700FEF378B27864
:109E48008A492046FCF708FE3279894902F00F0357
:109E580020461209FCF700FE7279864902F00F03CA
:109E680020461209FCF7F8FDB279824902F00F0387
:109E780020461209FCF7F0FDF2797E4902F00F0343
:109E880020461209FCF7E8FD327A7A4902F00F03FE
:109E980020461209FCF7E0FD4FF000080927F519E4
:109EA800F05D95F808E0697A95F802C0EB786A7871
:109EB80041EA0E21029195F806E0E97941EA0E217E
:109EC800019195F804E0697941EA0E2143EA0C23EF
:109ED80042EA0022009120464946FCF7D3FD95F856
:109EE8000EE0E97B95F80CC0A87A6B7BEA7A41EA28
:109EF8000E2143EA0C2342EA0022009120465146F3
:109F0800FCF7B4FD95F814E0697D95F812C0287C3B
:109F1800EB7C6A7C41EA0E2143EA0C2342EA0022E8
:109F2800009120465946FCF7A1FD95F81AE0E97E14
:109F3800A87D95F818C06B7EEA7D41EA0E21009154
:109F480042EA002243EA0C234B492046FCF78EFDE7
:109F5800B8F1050F56D01C37FFB208F10108B8F167
:109F6800060F9CD112E720464449FCF767FD337879
:109F7800D80703D542492046FCF760FD3378D90756
:109F880003D540492046FCF759FD7378DA0703D515
:109F98003D492046FCF752FD7378DB0703D53B4962
:109FA8002046FCF74BFD7378DF0703D53849204678
:109FB800FCF744FD37492046FCF740FD3378DD07C0
:109FC80003D52F492046FCF739FD3378D80703D548
:109FD8002C492046FCF732FD7378D90703D52A4966
:109FE8002046FCF72BFD7378DA0703D5274920466E
:109FF800FCF724FD7378DB077FF50AAF244904E7F3
:10A00800254902E76B7F2A7F244943EA022220463A
:10A01800FCF718FDAA7FEB7F214943EA022220467C
:10A02800FCF710FD99E7074B07481E49C01AC008FE
:10A03800000440F00300FCF701FD05B0BDE8F04F57
:10A04800FFF7CCBD54C602007CC60200AACE0200AF
:10A05800BECE0200ECCE0200FCCE0200ABCF020066
:10A06800C4CF0200DFCF0200F6CF02000AD0020000
:10A078002BD0020037D002009FD002000ECF020082
:10A088002ACF02003ACF02004ACF02005ACF02007C
:10A098006ACF02007ACF020096CF0200C2D0020037
:10A0A800B9D00200DCD0020043D002006BD002001D
:10A0B80085D002001FB50378062B12D0072B17D0C6
:10A0C800042B2AD1164B17481749C01AC008000498
:10A0D80040F00300FCF7B2FC04B0BDE81040FFF705
:10A0E8007DBD4068C8B104B0BDE81040FCF7E4BFCE
:10A0F80041680B4C0B488B784A78001B8C79039489
:10A108004C7902940C790194C008C9780091000434
:10A11800064940F00300FCF7C5FC04B010BD00BFC1
:10A1280054C602007CC60200B8D102008AD10200DF
:10A1380008B50849084800F0F1FD08B1FCF7BCFF74
:10A14800F721054800F005FE18B1BDE80840FCF706
:10A15800B3BF08BDF59C0200903E0020024A137868
:10A168004370013313707047D02C002008B50E4897
:10A17800FFF7F4FF02220C490C4801F059FA0828AD
:10A1880010D013280ED008B1FCF796FF084B0948E9
:10A198000949C01AC008000440F00400BDE808409E
:10A1A800FCF74CBC08BD00BFCE2C0020803E002030
:10A1B80054C602007CC60200EAD0020000B54FF483
:10A1C80000418BB00020FCF773FA08B1FCF774FF6C
:10A1D800FCF7A6F9FDF7F4F908B1FCF76DFF494A59
:10A1E80049480021FDF71CFA08B1FCF765FF474D07
:10A1F8000FCD04AC0FC495E80300454B454A0093C6
:10A208004FF4807384E80300CDE902230193424AA6
:10A218000723694604A8FDF7E5FA08B1FCF74CFFE7
:10A228003E490120FFF724FB08B1FCF745FF04A9CC
:10A238000020FFF715FC08B1FCF73EFF384800F096
:10A2480049FB08B1FCF738FFFDF7ACFE08B1FCF795
:10A2580033FF01F083FA08B1FCF72EFF002304A9AD
:10A268000120049301F006FB08B1FCF725FF04A8C0
:10A2780001F0D2FB08B1FCF71FFFFFF759FF294B8C
:10A288002948049304A901F05DF908B1FCF714FF0B
:10A29800102200210DEB020001F0B3FD0123234A37
:10A2A80023488DF8143004A98DF81C3000F060FFA5
:10A2B80008B1FCF701FF1F4A1D48032100F01CFFED
:10A2C80008B1FCF7F9FE00220421194800F03CFF10
:10A2D80008B1FCF7F1FE184801F03AFD174B184891
:10A2E8001849C01AC008000440F00300FCF7A6FB98
:10A2F800FFF774FCFCF736FA0028FBD1FDF768FE7F
:10A30800F8E700BF75A102003CD1020008CE0200A8
:10A318001C3F00201C400020099C0200499D0200AF
:10A32800B99A02007D9D0200803E0020BDA0020077
:10A33800CC3E002040D1020044D1020054C60200A5
:10A348007CC6020068D102000369C1688B429DBFC8
:10A358008268D21802F1FF3203F1FF3394BF501A1A
:10A36800581A70472DE9F041D0E902670446F61BF8
:10A378004068964288461546384405D901F018FDCC
:10A388003D44E560BDE8F0813246AD1B01F010FDAB
:10A398002A4608EB0601606801F00AFDF1E72DE99D
:10A3A800F843C5680646894617464FF000083469E1
:10A3B800B3687068A54228BFE418013C621B5C1BA7
:10A3C800BC4228BF3C46944228BF1446494628440C
:10A3D800224601F0EDFCB3682544AB4208BF0025D6
:10A3E8003F1BA044A144F560E1D14046BDE8F88395
:10A3F80010B5114C114AA2610223C4E90433104B71
:10A40800E361A2644FF400730E4A2362E2640023FE
:10A4180010220D49A362E01D6362E362A3656365D0
:10A42800E365226501F020FD0849204601F01CFD86
:10A438002023A37110BD00BF1C41002046D202009A
:10A44800A4410020944100204FD2020053D20200C0
:10A45800F8B5184C182300FB033503FB00402544CE
:10A46800C46A012C0F46164611D003D3022C1BD008
:10A4780000240AE02846FFF767FF864205D83246DF
:10A4880039462846FFF76EFF34462046F8BD284671
:10A49800FFF75AFF8642344628BF0446224639460B
:10A4A8002846FFF75FFFF0E72846BDE8F840FFF7CA
:10A4B80076BF00BF1C410020FFF79ABF64DF7047DA
:10A4C80070B5C0B14AB116880024B44203D3051947
:10A4D8006D789D4208D0A14201D800200BE0055DAF
:10A4E80001352C44A4B2F0E7A142F6D9A31C13808D
:10A4F800005D013880B270BDF0B587B00023064614
:10A508000D461046ADF8063002AA10230DF10501DC
:10A518008DF80530FFF7D2FF16B9002007B0F0BD5F
:10A528000028FAD19DF80530042B06D0102B2DD029
:10A53800022BF3D11C46032301E01C460523BDF87A
:10A5480006207AB90DF1060229463046FFF7B8FF12
:10A55800BDF806302BB923460DF106023046FFF749
:10A56800AFFF0546BDF80670002FD6D00024A542DF
:10A57800D3D9E0199DF8052002A9304401F0B1FBB8
:10A5880038B19DF805301C44A4B2F0E7062407232F
:10A59800D5E70120C2E79BDF70479DDF70479EDF4C
:10A5A8007047000030B50C4B0C4A196800239942DB
:10A5B80001D100200CE002EB8304A5788478A54241
:10A5C80007D132F823500488A54202D1044B1868F9
:10A5D80030BD0133EBE700BFAC430020B446002098
:10A5E800A443002070B590F8C63216467622A0B073
:10A5F80002FB03000D46FFF7D5FF044660B17C223D
:10A60800002101A801F0FDFB01238DF80430ADF80D
:10A618000660029501A8A04720B070BD2DE9F74F4C
:10A6280090F8C6B24FF0760A80460BFB0A00CDE9D7
:10A638000012FFF7B7FF814648B3164F3D68052D56
:10A6480025D8154C019AEE01A0190AFB0B8142800E
:10A658005246043001F0ACFB009B63B10023A355C4
:10A6680026440135C6F87C900C4E3D603268954210
:10A678000DD1002506E00223F1E704EBC5100135F2
:10A68800C36F984733689D42F7D300233B6003B0FC
:10A69800BDE8F08FB0460020B0430020AC43002056
:10A6A80037B590F8C53290F8C6220C46BBB1013BCD
:10A6B8007621DBB25143122505FB031303445B8A61
:10A6C8000133ADF80430762303FB020201A9138994
:10A6D800ADF806302046FFF760FF03B030BD7623A3
:10A6E80003FB0203DB88ECE770B54FF433720E46C8
:10A6F8000021044601F085FB174B18481849A4F8B7
:10A70800CA6200251D60174B84F8C9521B68236074
:10A71800154B228884F8C652C01AC0080004334674
:10A7280040F0040084F8C552FCF796F9224601214E
:10A738003046FFF730FF112806D020B9012384F8EE
:10A74800C73284F8C80270BD012384F8C73284F880
:10A75800C8322846F7E700BFB046002084C602008A
:10A7680086D30200B446002054C60200F8B5204A39
:10A7780090F8C93212680133DBB2934204460D46A1
:10A7880080F8C9324FF000062ED290F8C632194927
:10A7980080F8C5620133DBB2762213FB02F280F83F
:10A7A800C63251F8233083508718134B13483E7133
:10A7B800C01AC00800042B46A25A114940F00400F0
:10A7C800FCF74AF901213A462846FFF7E4FE01461C
:10A7D80048B184F8C7622A462046FFF703FF094BB1
:10A7E80003221A705D80F8BD80F8C762F7E700BFE2
:10A7F800AC430020B446002054C6020084C60200C0
:10A8080086D30200B04300202DE9F74F90F8C642E6
:10A8180090F8C562762314FB03F700EB07084FF0A6
:10A82800120C98F804E01CFB0673741C0A33744578
:10A83800034419D006EBC6056D0044193C4405EBEA
:10A8480007090EF1FF3A00271C3406EB070B5FFAE5
:10A858008BF5AE450DD9DA451D891CD1B8F80830FD
:10A868009D422AD1002321E01B89B8F808008342C1
:10A8780005D101230B70002003B0BDE8F08F013330
:10A88800ADF80430ADF8060000230B70104601A99E
:10A89800FFF785FEF0E70CFB07F309EB030B834496
:10A8A8000135BBF822B05D450DD1234490F8C5525F
:10A8B800013580F8C5520137C7E70135ADF80450B6
:10A8C800ADF80630E0E70BF1FF3BADF80450ADF80A
:10A8D80006B0D9E758B1074A00231360064A012198
:10A8E8001170064A1360064A1060184670470E2019
:10A8F800704700BFAC430020A8430020B0460020AA
:10A90800A443002010B5044680B10C4B1B787BB1E2
:10A91800FFF748FE70B90A4A1368052B0CD8094995
:10A92800246841F823400133136010BD0E20FCE772
:10A938000820FAE70020F8E70420F6E7A8430020FB
:10A94800AC430020B446002050B1084A12784AB1FE
:10A95800074A126832B190F8C7322BB9FFF7C4BE64
:10A968000E2070470820704711207047A843002028
:10A97800AC4300202DE9F3470C460546C8B1C1B1E8
:10A98800B54B1B78ABB10388302B41D014D8112BB1
:10A9980000F0528194F8C8325BB12B88303B1F2BF2
:10A9A80007D8AB88B4F8CA12994202D12046FFF7FB
:10A9B8009BFE02B0BDE8F087322B64D0332BE9D17F
:10A9C8008288B1F8CA329342E4D1C68891F8C6C2E7
:10A9D80091F8C572002E00F0EF8076261CFB06F673
:10A9E800A1197B1C09794FF000088B428DF807806C
:10A9F80000F012810DF1070184F8C5322046FFF7F7
:10AA080003FF0146002800F00A8184F8C78223E08A
:10AA18008288B1F8CA329A42BCD191F8C6328F48BE
:10AA2800EF88762213FB02F3CE18CA5A8C4BC01A51
:10AA3800C008000440F00400C7B98A49FCF702F8CE
:10AA48002B69A988C6F806302046FFF729FE01467B
:10AA580000289FD084F8C772AA882046FFF7C2FD55
:10AA6800814B03221A70AA885A8093E77F49FBF723
:10AA7800E9FFAA8800212046FFF7D0FDA9882046D3
:10AA8800FFF774FE86E78288B1F8CA329A4281D10C
:10AA9800C38891F8C672002B6AD14FF0760A17FB6B
:10AAA8000AFA01EB0A09837A99F804603344062B01
:10AAB80031DC89F804300AF10A0A122313FB06A3D1
:10AAC80005F10C0C23444FF0000E99F8042096422F
:10AAD8000CF10A0C03F1120335D31223013E03FBD8
:10AAE800064694F8C632762101FB034356441B8977
:10AAF800318999423CD2062A3AD0A98884F8C522DD
:10AB08002046FFF7CDFD014600283FF443AF002360
:10AB180084F8C732A0E7062389F80430504A4F4B1F
:10AB2800A3EB02084FEAD8084FEA084848F00208A1
:10AB380031F80A204E494046FBF784FF4D4940460C
:10AB4800FBF77CFFB7E76146013651F80A0D43F879
:10AB5800120C486843F80E0C098923F80A1C23F8DC
:10AB680008EC23F806EC23F804EC23F802ECACE735
:10AB7800002684F8C5620DF10701AA882046FFF770
:10AB880043FE014610B184F8C76265E79DF80730B7
:10AB9800002B3FF4FFAE76235F433048304BE25B37
:10ABA800C01AC008AB880004334940F00400FBF722
:10ABB80053FFAA8801215EE7762303FB0CF11223D9
:10ABC80003FB0713B0F80AE023447645BFF405AF4A
:10ABD800C189A1F52451082908D8DFE801F0141724
:10ABE8000507070707071A0081899982998A39B1E9
:10ABF800D98A29B1198B19B1598B00297FF4EDAE87
:10AC080001360630E1E78189D982EFE78189198326
:10AC1800ECE781895983E9E701238DF807309DF82E
:10AC28000730002B3FF4B6AE0D4B0C48A25BC01AA0
:10AC3800C0080004AB88B7E78288B1F8CA329A42E4
:10AC48007FF4A8AE002381F8C73281F8C8324FF6E6
:10AC5800FF73A1F8CA329DE6A843002084C602000B
:10AC680054C602005AD20200B043002073D2020038
:10AC780090D20200D6D2020030D3020090DF704793
:10AC8800A5DF7047B5DF70477FB51E4B1E4CE41A31
:10AC9800E40824040E4603460A4605461B4944F0C8
:10ACA8000400FBF7D9FE00236A4602A92846ADF83E
:10ACB8000860ADF80A6003930093ADF80430FFF71D
:10ACC800DDFF0646D0B1FDF741FA44F00104034622
:10ACD8002A460F492046FBF7BFFEBDF80020BDF805
:10ACE800023002B91BB10B492046FBF7B5FEBDF88F
:10ACF80004201AB108492046FBF7A4FE304604B0E8
:10AD080070BD00BF54C60200A4C60200DAD3020018
:10AD180009D4020053D4020092D4020010B5B0B195
:10AD28004FF0F7130360FB2381610371F7240023BD
:10AD3800172141F6FB32C48001818372C37282817C
:10AD4800C48101828374C3748282184610BD0E20A8
:10AD5800FCE730B1A1F11703E02B04D841800020B3
:10AD680070470E2070470720704700002DE9F04F0C
:10AD78008488012C87B007460D4624D80388232BE6
:10AD88004FEAC40600F0318120D8102B65D0112B72
:10AD980000F0A4803544AB7AABB1E9882046FFF7D0
:10ADA8006FFF002840F036810123A872EB72A24899
:10ADB800A24BEA88A249C01AC0080004234640F002
:10ADC8000400FBF749FE07B0BDE8F08F3A2B00F00E
:10ADD8009280552B00F0C080242BDBD1838903930C
:10ADE800954F964BB0F80890B0F80AB0B0F80EA09E
:10ADF800FF1AFF0801EB06083F0447F004075FFA53
:10AE080089F2234688F80D208E493846FBF724FE40
:10AE18005A468D493846FBF715FE4A468B4938464F
:10AE2800FBF710FE52468A493846FBF70BFE039A99
:10AE380088493846FBF706FEAB69002BAAD00022EA
:10AE4800ADF814204DF67A22ADF8102098F80D20B0
:10AE5800ADF812408DF81420C3E0C37B0A798F192E
:10AE6800012B3A7324D0022B25D0FA883B899342D0
:10AE780015D2714B7149A3EB01084FEAD8084FEA84
:10AE8800084848F00409744948462346FBF7E4FD9E
:10AE9800F9882046FFF7F4FE78B90123FB72397B65
:10AEA8007B7B8B42BFF476AF2046FFF7EDFE71E760
:10AEB8000B88FB80D9E74B88FBE7112807D10123D2
:10AEC8006649BB7222464846FBF7BCFDE7E7FDF73B
:10AED8003DF96349024648F00100F5E78B19F7226E
:10AEE800DA8017221A8100229A72DA72FB221A7308
:10AEF8001B225A734EE701EB06084289B8F8063060
:10AF08004D4858499A4228BF1A464C4BC01A172A2E
:10AF18004FEAD00038BF172200042346A8F80820BB
:10AF280040F00400FBF798FDAB697BB198F80B2063
:10AF380062B140F67722ADF81020B8F80820ADF8D5
:10AF48001240ADF8142004A928469847002388F831
:10AF58000B3088F80A301DE7384B374FB0F80680B9
:10AF68004149FF1AFF083F0447F0040A05EB0609A8
:10AF7800434622465046FBF76FFD4246B9F8063075
:10AF8800172A38BF17229A4228BF1A46002189F883
:10AF98000A10A9F80820354900945046FBF766FDC9
:10AFA800B9F806102046FFF76DFE38B1FDF7CEF868
:10AFB8002F49024647F00100FBF744FD99F80B3092
:10AFC800002B7FF4E7AEAB69002B3FF4E3AE40F60D
:10AFD8007722ADF81020B9F80820ADF81240ADF886
:10AFE800142004A928469847D4E690F80880134B03
:10AFF80011482049C01AC0080004434640F0040024
:10B008002246FBF729FDAB19B888197B414528BFB3
:10B0180041464AE711283FF4D6AEFDF797F8074AAC
:10B02800054B0F499B1ADB081B04024643F001003D
:10B03800FBF708FDC7E600BFA4C6020054C602001D
:10B048003BD702008BD60200BAD60200CCD602004B
:10B05800DED60200EED60200E8D4020025D50200B2
:10B0680077D50200A8D50200E3D502001DD602005C
:10B078005CD60200FED602008ADF70478BDF70477D
:10B088008CDF704770B5037A86B005460C464BB323
:10B09800867CFFF7F3FF1422002101A800F0B1FE1F
:10B0A800334605F10A0205F11401A01CFFF7E8FF79
:10B0B8000D4C0E4B0E49E41AE408240444F0040431
:10B0C80006462046FBF7BAFC0623324609498DF8A6
:10B0D800043020460296FBF7B5FC1EB16B6A0BB133
:10B0E80001A8984706B070BD94C6020054C6020075
:10B0F8008DD7020098D7020010B5C8B1C2B1032994
:10B1080018D10479C4B90188138899420ED0012353
:10B118000371136803600948094B12880949C01A6A
:10B12800C008000440F00400FBF78CFC204600E057
:10B138000E2010BD0720FCE70420FAE794C60200A1
:10B1480054C60200AED7020050B1CB060AD011F0A7
:10B15800040116BF012341714371827100207047B9
:10B168000E20704707207047007DC0F3C00070476D
:10B17800F8B50D46044600285AD04262002108223C
:10B1880000F03FFE002D3CD02B7923722B7BA3745B
:10B198002B68FBB104F1140203F108071868596819
:10B1A800164603C60833BB423246F7D118683060EA
:10B1B8009B88B380AB68DBB11A68C4F80A205A6868
:10B1C800C4F80E2004F12803A3641F23A4F84C300C
:10B1D8000020F8BD227D6383A02142F0040263F3BE
:10B1E800C402E18201235021218322756375E1E7BE
:10B1F8004FF4C8722282062262811822A281E3815A
:10B20800E0E7237D658343F0040365F3C4032375F6
:10B21800012363754FF4C873A02223820623E282B8
:10B228006381502218232283A381E5812572C9E70F
:10B238000E20CEE730B5044687B088B3142200212B
:10B2480001A800F0DEFDFFF719FF2046FFF78CFF8D
:10B2580030B1636A23B101228DF8042001A8984710
:10B2680004F1480104F11400FFF706FF0D4B0446F2
:10B278000D48C01AC00834F008054FEA004008D04D
:10B2880022460A4940F00100FBF7DCFB204607B0E4
:10B2980030BD074940F00400FBF7D0FB2C46F5E72A
:10B2A8000E24F3E754C6020094C60200EBD702004E
:10B2B8000FD802002DE9F04F03881B2B8BB00746EF
:10B2C8000C4600F1080500F0A68005D8102B00F008
:10B2D800C5800BB0BDE8F08F1D2B18D0202BF8D1FE
:10B2E80014220DEB0200002100F08BFD626A002A97
:10B2F800EFD02868696805238DF8143006AB03C3BE
:10B308001434297A0994197005A89047E1E71422A2
:10B3180000210DEB020000F074FD04F11403204637
:10B328000993FFF721FF04F1480B064678B1022381
:10B338008DF8143005A8636A069598475946002089
:10B34800FFF79AFE29462046FFF79CFEC1E763797E
:10B3580094F80690002B53D02379BA8C019204EB11
:10B368008302A24602928046029A524503D1B9F15D
:10B37800000F2DD10EE052460199386A0393FFF76A
:10B38800BBF8039B08B308F101085FFA88F8B9F124
:10B39800000F32D1B8F1000F1CD10023012206950D
:10B3A800B9F1000F2FD09A4231D100238DF8143013
:10B3B80029462046FFF766FE636A0BB105A8984741
:10B3C80059460020FFF758FE83E7B9F1000F14D063
:10B3D8004345E2D12B4B2C482C49C01AC008000425
:10B3E80040F00400FBF72AFB9DF81C30012643F0CF
:10B3F80004038DF81C303346D0E70AF1040AB3E79A
:10B4080003460246CBE716B18DF81490D0E7032324
:10B418008DF81430D0E7142200210DEB020000F063
:10B42800F0FC3B7A012B7FF454AF164B16481849B1
:10B43800C01AC008000440F00400FBF7FFFA636A72
:10B44800002B3FF446AF04228DF8142014343A7AC6
:10B4580009948DF8182005A898473AE71422002186
:10B468000DEB020000F0CDFC07238DF81430BB88EB
:10B47800ADF81C3004F114030993636A0695002B98
:10B48800E9D126E754C6020094C60200C6D70200D6
:10B49800D6D70200A3DF704762DF70472DE9F04777
:10B4A8000C4686B005461422002101A800F0A9FC2C
:10B4B80023788BBBA18846F2782291422CD1A179BE
:10B4C8002A78914228D1277ABDF81260BDF8140075
:10B4D800BDF816C0122111FB074122461F469E46A1
:10B4E80046F2386946F6E64A914218D1BEF1000F95
:10B4F80001D0ADF816C00FB1ADF812600BB1ADF8C0
:10B508001400EB6843B16288ADF8062000228DF87C
:10B51800042001A92846984706B0BDE8F087B2F88C
:10B528000E80C84503D0D04506D01232DCE7B2F809
:10B5380016C04FF0010EF8E70123D68A108B1F467C
:10B54800F3E70000F0B5164A87B002AC03460E4692
:10B5580002F1100C274610685168254603C50832C9
:10B5680062452C46F7D1CBB1C6B119463846FFF72C
:10B5780093FF88B91A788DF8062006AA46F2782132
:10B5880022F8141D4FF6FF7159803168D9609880F0
:10B5980018811046FFF7B6F907B0F0BD0E20FBE79B
:10B5A80021D802007FB50346084649B343B34A8809
:10B5B8004FF6FF718A4202D09988914220D11988AA
:10B5C800112920D039291BD18288CAB159899142C1
:10B5D80016D1C268A2B101218DF8041003F110013F
:10B5E800DB890391ADF8103001A990470D480E4B47
:10B5F8000E49C01AC008000440F00400FBF71EFA08
:10B6080007B05DF804FB9B889342F9D1C368002B0F
:10B61800F6D006A9022201F8142D4FF6FF724280D7
:10B628009847EDE78CC6020054C6020031D80200E4
:10B638001FB5034680B3F42A0CD9184B184819498A
:10B64800C01AC008000440F00200FBF7F7F9072011
:10B6580004B010BD40884FF6FF74A0420BD10F4BC9
:10B668000F481149C01AC008000440F00200FBF757
:10B67800E5F90820ECE71B89ADF806304FF4817432
:10B688000023039101A9ADF80440ADF80830ADF8E6
:10B698000A20FFF7FFFEDBE70E20D9E754C60200B9
:10B6A8008CC6020046D8020058D8020048B1418032
:10B6B8002AB15388C380138883809388038100202C
:10B6C80070470E20704710DF7047000013B504461E
:10B6D80009496846FCF705FD019808B902B010BD94
:10B6E800D0E900312046984718B16846FCF703FDB9
:10B6F800F2E71120F2E700BF84D8020013B5044630
:10B7080007496846FCF7EDFC019B0BB902B010BD78
:10B718002046D3E9002190476846FCF7ECFCF3E7A4
:10B728009CD802000B4991F816335A09EC231341AF
:10B73800DB0706D5084B9A683AB94FF480030B60CB
:10B74800704742F20200FBF7B7BC1A6842F4800265
:10B758001A60704700E100E0043C0020F7B5184F7C
:10B768003C785CBB174E012520463570FFF7AEFFCD
:10B77800112820D02046FFF7C1FF134B186801900D
:10B7880002A800F8054DFCF7C3F8104901A8FFF717
:10B798009AFF0446B0FA80F0400938709DF803001B
:10B7A800FCF7DAF83CB90A4B34701C70FFF7BAFFA3
:10B7B8002846FFF7A3FF204603B0F0BD0824FAE7A8
:10B7C800CD460020CC4600207DD80200DD70020066
:10B7D800CE460020014B1878704700BFCD460020A8
:10B7E80007B508496846FCF77CFC019B13B903B010
:10B7F8005DF804FBD3E9002090476846FCF77BFC22
:10B80800F3E700BF90D80200FFF7EABF60DF704798
:10B8180069DF704761DF704730B5114DADF5017DC7
:10B828004FF4FA740DF1020103A8ADF80240FFF7D6
:10B83800F1FF70B9294601A8FCF753FC029B002BC5
:10B84800F0D003A8D3E90021904701A8FCF753FCE6
:10B85800F4E7052801D0FBF72FFC0DF5017D30BD7D
:10B8680020DB0200024B1B780BB1FFF7D5BF7047F6
:10B87800CF46002030B5054685B00C46002900F0BB
:10B88800B6805C4B0B600C22002101A800F0B9FACD
:10B8980002238DF8063022688DF80450062301A98A
:10B8A8002020ADF80830FFF7B3FF60B1FCF74EFC7D
:10B8B800514A524B52499B1ADB081B04024643F07B
:10B8C8000100FBF7BFF80C22002101A800F099FA4B
:10B8D80000238DF8053002238DF8063022680123F5
:10B8E80001A940208DF80730FFF792FF60B1FCF7FF
:10B8F8002DFC414A414B43499B1ADB081B04024675
:10B9080043F00100FBF79EF80C22002101A800F08B
:10B9180078FAF72322688DF8045001A92320ADF89E
:10B928000630FFF775FF60B1FCF710FC324A334B65
:10B9380035499B1ADB081B04024643F00100FBF75C
:10B9480081F80C22002101A800F05BFA012022688E
:10B958008DF8040001A9FFF75BFF60B1FCF7F6FB67
:10B96800254A264B29499B1ADB081B04024643F04B
:10B978000100FBF767F80C22002101A800F041FA4A
:10B988004FF4B0632268019301A9A120FFF740FF9B
:10B9980060B1FCF7DBFB184A184B1D499B1ADB0802
:10B9A8001B04024643F00100FBF74CF80C2200216F
:10B9B80001A800F026FA9DF8043022686FF300030E
:10B9C80001A9A0208DF80430FFF722FF68B1FCF729
:10B9D800BDFB094A094B0F499B1ADB081B040246A9
:10B9E80043F00100FBF72EF8002005B030BD0E2013
:10B9F800FBE700BFE029002054C60200B4C60200DD
:10BA0800B0D80200F6D8020042D9020089D9020053
:10BA1800D5D9020026DA0200F8B506460768FFF70E
:10BA2800F5FE3368BB4205461DD9194B194C1A4916
:10BA3800E41AE408240444F002042046FAF7FEFF5E
:10BA4800336816493A462046FBF706F84FF080530C
:10BA58003268D3F80C3112499B0203F100539A1A49
:10BA68002046FAF7EFFF25B90E4B01221A70284637
:10BA7800F8BD2846FCF76AFB054A064B0A499B1A9B
:10BA8800DB081B04024643F00100FAF7DBFFEEE790
:10BA980054C60200B4C6020079DA0200A8DA02002D
:10BAA800D9DA0200CF46002003DB02004BDF7047E3
:10BAB8001FB50D4C01A8FFF7F9FF70B9214602A880
:10BAC800FCF70FFB039B002BF4D00198D3E900216E
